{
  "contractName": "Flipkartcoin",
  "abi": [
    {
      "inputs": [],
      "stateMutability": "nonpayable",
      "type": "constructor"
    },
    {
      "inputs": [],
      "name": "InvalidShortString",
      "type": "error"
    },
    {
      "inputs": [
        {
          "internalType": "string",
          "name": "str",
          "type": "string"
        }
      ],
      "name": "StringTooLong",
      "type": "error"
    },
    {
      "anonymous": false,
      "inputs": [
        {
          "indexed": true,
          "internalType": "address",
          "name": "owner",
          "type": "address"
        },
        {
          "indexed": true,
          "internalType": "address",
          "name": "spender",
          "type": "address"
        },
        {
          "indexed": false,
          "internalType": "uint256",
          "name": "value",
          "type": "uint256"
        }
      ],
      "name": "Approval",
      "type": "event"
    },
    {
      "anonymous": false,
      "inputs": [],
      "name": "EIP712DomainChanged",
      "type": "event"
    },
    {
      "anonymous": false,
      "inputs": [
        {
          "indexed": false,
          "internalType": "address",
          "name": "account",
          "type": "address"
        }
      ],
      "name": "Paused",
      "type": "event"
    },
    {
      "anonymous": false,
      "inputs": [
        {
          "indexed": true,
          "internalType": "bytes32",
          "name": "role",
          "type": "bytes32"
        },
        {
          "indexed": true,
          "internalType": "bytes32",
          "name": "previousAdminRole",
          "type": "bytes32"
        },
        {
          "indexed": true,
          "internalType": "bytes32",
          "name": "newAdminRole",
          "type": "bytes32"
        }
      ],
      "name": "RoleAdminChanged",
      "type": "event"
    },
    {
      "anonymous": false,
      "inputs": [
        {
          "indexed": true,
          "internalType": "bytes32",
          "name": "role",
          "type": "bytes32"
        },
        {
          "indexed": true,
          "internalType": "address",
          "name": "account",
          "type": "address"
        },
        {
          "indexed": true,
          "internalType": "address",
          "name": "sender",
          "type": "address"
        }
      ],
      "name": "RoleGranted",
      "type": "event"
    },
    {
      "anonymous": false,
      "inputs": [
        {
          "indexed": true,
          "internalType": "bytes32",
          "name": "role",
          "type": "bytes32"
        },
        {
          "indexed": true,
          "internalType": "address",
          "name": "account",
          "type": "address"
        },
        {
          "indexed": true,
          "internalType": "address",
          "name": "sender",
          "type": "address"
        }
      ],
      "name": "RoleRevoked",
      "type": "event"
    },
    {
      "anonymous": false,
      "inputs": [
        {
          "indexed": true,
          "internalType": "address",
          "name": "from",
          "type": "address"
        },
        {
          "indexed": true,
          "internalType": "address",
          "name": "to",
          "type": "address"
        },
        {
          "indexed": false,
          "internalType": "uint256",
          "name": "value",
          "type": "uint256"
        }
      ],
      "name": "Transfer",
      "type": "event"
    },
    {
      "anonymous": false,
      "inputs": [
        {
          "indexed": false,
          "internalType": "address",
          "name": "account",
          "type": "address"
        }
      ],
      "name": "Unpaused",
      "type": "event"
    },
    {
      "inputs": [],
      "name": "DEFAULT_ADMIN_ROLE",
      "outputs": [
        {
          "internalType": "bytes32",
          "name": "",
          "type": "bytes32"
        }
      ],
      "stateMutability": "view",
      "type": "function",
      "constant": true
    },
    {
      "inputs": [],
      "name": "DOMAIN_SEPARATOR",
      "outputs": [
        {
          "internalType": "bytes32",
          "name": "",
          "type": "bytes32"
        }
      ],
      "stateMutability": "view",
      "type": "function",
      "constant": true
    },
    {
      "inputs": [],
      "name": "MINTER_ROLE",
      "outputs": [
        {
          "internalType": "bytes32",
          "name": "",
          "type": "bytes32"
        }
      ],
      "stateMutability": "view",
      "type": "function",
      "constant": true
    },
    {
      "inputs": [],
      "name": "PAUSER_ROLE",
      "outputs": [
        {
          "internalType": "bytes32",
          "name": "",
          "type": "bytes32"
        }
      ],
      "stateMutability": "view",
      "type": "function",
      "constant": true
    },
    {
      "inputs": [
        {
          "internalType": "address",
          "name": "owner",
          "type": "address"
        },
        {
          "internalType": "address",
          "name": "spender",
          "type": "address"
        }
      ],
      "name": "allowance",
      "outputs": [
        {
          "internalType": "uint256",
          "name": "",
          "type": "uint256"
        }
      ],
      "stateMutability": "view",
      "type": "function",
      "constant": true
    },
    {
      "inputs": [
        {
          "internalType": "address",
          "name": "spender",
          "type": "address"
        },
        {
          "internalType": "uint256",
          "name": "amount",
          "type": "uint256"
        }
      ],
      "name": "approve",
      "outputs": [
        {
          "internalType": "bool",
          "name": "",
          "type": "bool"
        }
      ],
      "stateMutability": "nonpayable",
      "type": "function"
    },
    {
      "inputs": [
        {
          "internalType": "address",
          "name": "account",
          "type": "address"
        }
      ],
      "name": "balanceOf",
      "outputs": [
        {
          "internalType": "uint256",
          "name": "",
          "type": "uint256"
        }
      ],
      "stateMutability": "view",
      "type": "function",
      "constant": true
    },
    {
      "inputs": [
        {
          "internalType": "uint256",
          "name": "amount",
          "type": "uint256"
        }
      ],
      "name": "burn",
      "outputs": [],
      "stateMutability": "nonpayable",
      "type": "function"
    },
    {
      "inputs": [
        {
          "internalType": "address",
          "name": "account",
          "type": "address"
        },
        {
          "internalType": "uint256",
          "name": "amount",
          "type": "uint256"
        }
      ],
      "name": "burnFrom",
      "outputs": [],
      "stateMutability": "nonpayable",
      "type": "function"
    },
    {
      "inputs": [],
      "name": "decimals",
      "outputs": [
        {
          "internalType": "uint8",
          "name": "",
          "type": "uint8"
        }
      ],
      "stateMutability": "view",
      "type": "function",
      "constant": true
    },
    {
      "inputs": [
        {
          "internalType": "address",
          "name": "spender",
          "type": "address"
        },
        {
          "internalType": "uint256",
          "name": "subtractedValue",
          "type": "uint256"
        }
      ],
      "name": "decreaseAllowance",
      "outputs": [
        {
          "internalType": "bool",
          "name": "",
          "type": "bool"
        }
      ],
      "stateMutability": "nonpayable",
      "type": "function"
    },
    {
      "inputs": [],
      "name": "eip712Domain",
      "outputs": [
        {
          "internalType": "bytes1",
          "name": "fields",
          "type": "bytes1"
        },
        {
          "internalType": "string",
          "name": "name",
          "type": "string"
        },
        {
          "internalType": "string",
          "name": "version",
          "type": "string"
        },
        {
          "internalType": "uint256",
          "name": "chainId",
          "type": "uint256"
        },
        {
          "internalType": "address",
          "name": "verifyingContract",
          "type": "address"
        },
        {
          "internalType": "bytes32",
          "name": "salt",
          "type": "bytes32"
        },
        {
          "internalType": "uint256[]",
          "name": "extensions",
          "type": "uint256[]"
        }
      ],
      "stateMutability": "view",
      "type": "function",
      "constant": true
    },
    {
      "inputs": [
        {
          "internalType": "bytes32",
          "name": "role",
          "type": "bytes32"
        }
      ],
      "name": "getRoleAdmin",
      "outputs": [
        {
          "internalType": "bytes32",
          "name": "",
          "type": "bytes32"
        }
      ],
      "stateMutability": "view",
      "type": "function",
      "constant": true
    },
    {
      "inputs": [
        {
          "internalType": "bytes32",
          "name": "role",
          "type": "bytes32"
        },
        {
          "internalType": "address",
          "name": "account",
          "type": "address"
        }
      ],
      "name": "grantRole",
      "outputs": [],
      "stateMutability": "nonpayable",
      "type": "function"
    },
    {
      "inputs": [
        {
          "internalType": "bytes32",
          "name": "role",
          "type": "bytes32"
        },
        {
          "internalType": "address",
          "name": "account",
          "type": "address"
        }
      ],
      "name": "hasRole",
      "outputs": [
        {
          "internalType": "bool",
          "name": "",
          "type": "bool"
        }
      ],
      "stateMutability": "view",
      "type": "function",
      "constant": true
    },
    {
      "inputs": [
        {
          "internalType": "address",
          "name": "spender",
          "type": "address"
        },
        {
          "internalType": "uint256",
          "name": "addedValue",
          "type": "uint256"
        }
      ],
      "name": "increaseAllowance",
      "outputs": [
        {
          "internalType": "bool",
          "name": "",
          "type": "bool"
        }
      ],
      "stateMutability": "nonpayable",
      "type": "function"
    },
    {
      "inputs": [],
      "name": "name",
      "outputs": [
        {
          "internalType": "string",
          "name": "",
          "type": "string"
        }
      ],
      "stateMutability": "view",
      "type": "function",
      "constant": true
    },
    {
      "inputs": [
        {
          "internalType": "address",
          "name": "owner",
          "type": "address"
        }
      ],
      "name": "nonces",
      "outputs": [
        {
          "internalType": "uint256",
          "name": "",
          "type": "uint256"
        }
      ],
      "stateMutability": "view",
      "type": "function",
      "constant": true
    },
    {
      "inputs": [],
      "name": "paused",
      "outputs": [
        {
          "internalType": "bool",
          "name": "",
          "type": "bool"
        }
      ],
      "stateMutability": "view",
      "type": "function",
      "constant": true
    },
    {
      "inputs": [
        {
          "internalType": "address",
          "name": "owner",
          "type": "address"
        },
        {
          "internalType": "address",
          "name": "spender",
          "type": "address"
        },
        {
          "internalType": "uint256",
          "name": "value",
          "type": "uint256"
        },
        {
          "internalType": "uint256",
          "name": "deadline",
          "type": "uint256"
        },
        {
          "internalType": "uint8",
          "name": "v",
          "type": "uint8"
        },
        {
          "internalType": "bytes32",
          "name": "r",
          "type": "bytes32"
        },
        {
          "internalType": "bytes32",
          "name": "s",
          "type": "bytes32"
        }
      ],
      "name": "permit",
      "outputs": [],
      "stateMutability": "nonpayable",
      "type": "function"
    },
    {
      "inputs": [
        {
          "internalType": "bytes32",
          "name": "role",
          "type": "bytes32"
        },
        {
          "internalType": "address",
          "name": "account",
          "type": "address"
        }
      ],
      "name": "renounceRole",
      "outputs": [],
      "stateMutability": "nonpayable",
      "type": "function"
    },
    {
      "inputs": [
        {
          "internalType": "bytes32",
          "name": "role",
          "type": "bytes32"
        },
        {
          "internalType": "address",
          "name": "account",
          "type": "address"
        }
      ],
      "name": "revokeRole",
      "outputs": [],
      "stateMutability": "nonpayable",
      "type": "function"
    },
    {
      "inputs": [
        {
          "internalType": "bytes4",
          "name": "interfaceId",
          "type": "bytes4"
        }
      ],
      "name": "supportsInterface",
      "outputs": [
        {
          "internalType": "bool",
          "name": "",
          "type": "bool"
        }
      ],
      "stateMutability": "view",
      "type": "function",
      "constant": true
    },
    {
      "inputs": [],
      "name": "symbol",
      "outputs": [
        {
          "internalType": "string",
          "name": "",
          "type": "string"
        }
      ],
      "stateMutability": "view",
      "type": "function",
      "constant": true
    },
    {
      "inputs": [],
      "name": "totalSupply",
      "outputs": [
        {
          "internalType": "uint256",
          "name": "",
          "type": "uint256"
        }
      ],
      "stateMutability": "view",
      "type": "function",
      "constant": true
    },
    {
      "inputs": [
        {
          "internalType": "address",
          "name": "to",
          "type": "address"
        },
        {
          "internalType": "uint256",
          "name": "amount",
          "type": "uint256"
        }
      ],
      "name": "transfer",
      "outputs": [
        {
          "internalType": "bool",
          "name": "",
          "type": "bool"
        }
      ],
      "stateMutability": "nonpayable",
      "type": "function"
    },
    {
      "inputs": [
        {
          "internalType": "address",
          "name": "from",
          "type": "address"
        },
        {
          "internalType": "address",
          "name": "to",
          "type": "address"
        },
        {
          "internalType": "uint256",
          "name": "amount",
          "type": "uint256"
        }
      ],
      "name": "transferFrom",
      "outputs": [
        {
          "internalType": "bool",
          "name": "",
          "type": "bool"
        }
      ],
      "stateMutability": "nonpayable",
      "type": "function"
    },
    {
      "inputs": [],
      "name": "pause",
      "outputs": [],
      "stateMutability": "nonpayable",
      "type": "function"
    },
    {
      "inputs": [],
      "name": "unpause",
      "outputs": [],
      "stateMutability": "nonpayable",
      "type": "function"
    },
    {
      "inputs": [
        {
          "internalType": "address",
          "name": "to",
          "type": "address"
        },
        {
          "internalType": "uint256",
          "name": "amount",
          "type": "uint256"
        }
      ],
      "name": "mint",
      "outputs": [],
      "stateMutability": "nonpayable",
      "type": "function"
    }
  ],
  "bytecode": "0x6101606040523480156200001257600080fd5b506040518060400160405280600c81526020017f666c69706b617274636f696e0000000000000000000000000000000000000000815250806040518060400160405280600181526020017f31000000000000000000000000000000000000000000000000000000000000008152506040518060400160405280600c81526020017f666c69706b617274636f696e00000000000000000000000000000000000000008152506040518060400160405280600381526020017f464b4300000000000000000000000000000000000000000000000000000000008152508160039081620000fd9190620009d1565b5080600490816200010f9190620009d1565b5050506000600560006101000a81548160ff02191690831515021790555062000148600783620002a860201b62000ecc1790919060201c565b61012081815250506200016b600882620002a860201b62000ecc1790919060201c565b6101408181525050818051906020012060e08181525050808051906020012061010081815250504660a08181525050620001aa6200030560201b60201c565b608081815250503073ffffffffffffffffffffffffffffffffffffffff1660c08173ffffffffffffffffffffffffffffffffffffffff1681525050505050620001fd6000801b336200036260201b60201c565b6200022f7f65d7a28e3265b37a6474929f336521b332c1681b933f6cb9f3376673440d862a336200036260201b60201c565b6200027033620002446200045460201b60201c565b600a62000252919062000c48565b6461e302834462000264919062000c99565b6200045d60201b60201c565b620002a27f9f2df0fed2c77648de5860a4cc508cd0818c85b8b8a1ab4ceeef8d981c8956a6336200036260201b60201c565b62001043565b6000602083511015620002ce57620002c683620005ca60201b60201c565b9050620002ff565b82620002e5836200063760201b62000f101760201c565b6000019081620002f69190620009d1565b5060ff60001b90505b92915050565b60007f8b73c3c69bb8fe3d512ecc4cf759cc79239f7b179b0ffacaa9a75d522b39400f60e0516101005146306040516020016200034795949392919062000d55565b60405160208183030381529060405280519060200120905090565b6200037482826200064160201b60201c565b620004505760016006600084815260200190815260200160002060000160008373ffffffffffffffffffffffffffffffffffffffff1673ffffffffffffffffffffffffffffffffffffffff16815260200190815260200160002060006101000a81548160ff021916908315150217905550620003f5620006ac60201b60201c565b73ffffffffffffffffffffffffffffffffffffffff168173ffffffffffffffffffffffffffffffffffffffff16837f2f8788117e7eff1d82e926ec794901d17c78024a50270940304540a733656f0d60405160405180910390a45b5050565b60006012905090565b600073ffffffffffffffffffffffffffffffffffffffff168273ffffffffffffffffffffffffffffffffffffffff1603620004cf576040517f08c379a0000000000000000000000000000000000000000000000000000000008152600401620004c69062000e13565b60405180910390fd5b620004e360008383620006b460201b60201c565b8060026000828254620004f7919062000e35565b92505081905550806000808473ffffffffffffffffffffffffffffffffffffffff1673ffffffffffffffffffffffffffffffffffffffff168152602001908152602001600020600082825401925050819055508173ffffffffffffffffffffffffffffffffffffffff16600073ffffffffffffffffffffffffffffffffffffffff167fddf252ad1be2c89b69c2b068fc378daa952ba7f163c4a11628f55a4df523b3ef83604051620005aa919062000e70565b60405180910390a3620005c660008383620006e160201b60201c565b5050565b600080829050601f815111156200061a57826040517f305a27a900000000000000000000000000000000000000000000000000000000815260040162000611919062000f0b565b60405180910390fd5b805181620006289062000f61565b60001c1760001b915050919050565b6000819050919050565b60006006600084815260200190815260200160002060000160008373ffffffffffffffffffffffffffffffffffffffff1673ffffffffffffffffffffffffffffffffffffffff16815260200190815260200160002060009054906101000a900460ff16905092915050565b600033905090565b620006c4620006e660201b60201c565b620006dc8383836200073b60201b62000f1a1760201c565b505050565b505050565b620006f66200074060201b60201c565b1562000739576040517f08c379a0000000000000000000000000000000000000000000000000000000008152600401620007309062001021565b60405180910390fd5b565b505050565b6000600560009054906101000a900460ff16905090565b600081519050919050565b7f4e487b7100000000000000000000000000000000000000000000000000000000600052604160045260246000fd5b7f4e487b7100000000000000000000000000000000000000000000000000000000600052602260045260246000fd5b60006002820490506001821680620007d957607f821691505b602082108103620007ef57620007ee62000791565b5b50919050565b60008190508160005260206000209050919050565b60006020601f8301049050919050565b600082821b905092915050565b600060088302620008597fffffffffffffffffffffffffffffffffffffffffffffffffffffffffffffffff826200081a565b6200086586836200081a565b95508019841693508086168417925050509392505050565b6000819050919050565b6000819050919050565b6000620008b2620008ac620008a6846200087d565b62000887565b6200087d565b9050919050565b6000819050919050565b620008ce8362000891565b620008e6620008dd82620008b9565b84845462000827565b825550505050565b600090565b620008fd620008ee565b6200090a818484620008c3565b505050565b5b81811015620009325762000926600082620008f3565b60018101905062000910565b5050565b601f82111562000981576200094b81620007f5565b62000956846200080a565b8101602085101562000966578190505b6200097e62000975856200080a565b8301826200090f565b50505b505050565b600082821c905092915050565b6000620009a66000198460080262000986565b1980831691505092915050565b6000620009c1838362000993565b9150826002028217905092915050565b620009dc8262000757565b67ffffffffffffffff811115620009f857620009f762000762565b5b62000a048254620007c0565b62000a1182828562000936565b600060209050601f83116001811462000a49576000841562000a34578287015190505b62000a408582620009b3565b86555062000ab0565b601f19841662000a5986620007f5565b60005b8281101562000a835784890151825560018201915060208501945060208101905062000a5c565b8683101562000aa3578489015162000a9f601f89168262000993565b8355505b6001600288020188555050505b505050505050565b7f4e487b7100000000000000000000000000000000000000000000000000000000600052601160045260246000fd5b60008160011c9050919050565b6000808291508390505b600185111562000b465780860481111562000b1e5762000b1d62000ab8565b5b600185161562000b2e5780820291505b808102905062000b3e8562000ae7565b945062000afe565b94509492505050565b60008262000b61576001905062000c34565b8162000b71576000905062000c34565b816001811462000b8a576002811462000b955762000bcb565b600191505062000c34565b60ff84111562000baa5762000ba962000ab8565b5b8360020a91508482111562000bc45762000bc362000ab8565b5b5062000c34565b5060208310610133831016604e8410600b841016171562000c055782820a90508381111562000bff5762000bfe62000ab8565b5b62000c34565b62000c14848484600162000af4565b9250905081840481111562000c2e5762000c2d62000ab8565b5b81810290505b9392505050565b600060ff82169050919050565b600062000c55826200087d565b915062000c628362000c3b565b925062000c917fffffffffffffffffffffffffffffffffffffffffffffffffffffffffffffffff848462000b4f565b905092915050565b600062000ca6826200087d565b915062000cb3836200087d565b925082820262000cc3816200087d565b9150828204841483151762000cdd5762000cdc62000ab8565b5b5092915050565b6000819050919050565b62000cf98162000ce4565b82525050565b62000d0a816200087d565b82525050565b600073ffffffffffffffffffffffffffffffffffffffff82169050919050565b600062000d3d8262000d10565b9050919050565b62000d4f8162000d30565b82525050565b600060a08201905062000d6c600083018862000cee565b62000d7b602083018762000cee565b62000d8a604083018662000cee565b62000d99606083018562000cff565b62000da8608083018462000d44565b9695505050505050565b600082825260208201905092915050565b7f45524332303a206d696e7420746f20746865207a65726f206164647265737300600082015250565b600062000dfb601f8362000db2565b915062000e088262000dc3565b602082019050919050565b6000602082019050818103600083015262000e2e8162000dec565b9050919050565b600062000e42826200087d565b915062000e4f836200087d565b925082820190508082111562000e6a5762000e6962000ab8565b5b92915050565b600060208201905062000e87600083018462000cff565b92915050565b60005b8381101562000ead57808201518184015260208101905062000e90565b60008484015250505050565b6000601f19601f8301169050919050565b600062000ed78262000757565b62000ee3818562000db2565b935062000ef581856020860162000e8d565b62000f008162000eb9565b840191505092915050565b6000602082019050818103600083015262000f27818462000eca565b905092915050565b600081519050919050565b6000819050602082019050919050565b600062000f58825162000ce4565b80915050919050565b600062000f6e8262000f2f565b8262000f7a8462000f3a565b905062000f878162000f4a565b9250602082101562000fca5762000fc57fffffffffffffffffffffffffffffffffffffffffffffffffffffffffffffffff836020036008026200081a565b831692505b5050919050565b7f5061757361626c653a2070617573656400000000000000000000000000000000600082015250565b60006200100960108362000db2565b9150620010168262000fd1565b602082019050919050565b600060208201905081810360008301526200103c8162000ffa565b9050919050565b60805160a05160c05160e051610100516101205161014051613b966200109e6000396000610a4101526000610a0d01526000611d8401526000611d6301526000611555015260006115ab015260006115d40152613b966000f3fe608060405234801561001057600080fd5b50600436106101da5760003560e01c806370a0823111610104578063a217fddf116100a2578063d539139311610071578063d539139314610571578063d547741f1461058f578063dd62ed3e146105ab578063e63ab1e9146105db576101da565b8063a217fddf146104d7578063a457c2d7146104f5578063a9059cbb14610525578063d505accf14610555576101da565b80638456cb59116100de5780638456cb591461045b57806384b0196e1461046557806391d148541461048957806395d89b41146104b9576101da565b806370a08231146103df57806379cc67901461040f5780637ecebe001461042b576101da565b8063313ce5671161017c5780633f4ba83a1161014b5780633f4ba83a1461037f57806340c10f191461038957806342966c68146103a55780635c975abb146103c1576101da565b8063313ce567146102f75780633644e5151461031557806336568abe14610333578063395093511461034f576101da565b806318160ddd116101b857806318160ddd1461025d57806323b872dd1461027b578063248a9ca3146102ab5780632f2ff15d146102db576101da565b806301ffc9a7146101df57806306fdde031461020f578063095ea7b31461022d575b600080fd5b6101f960048036038101906101f49190612490565b6105f9565b60405161020691906124d8565b60405180910390f35b610217610673565b6040516102249190612583565b60405180910390f35b61024760048036038101906102429190612639565b610705565b60405161025491906124d8565b60405180910390f35b610265610728565b6040516102729190612688565b60405180910390f35b610295600480360381019061029091906126a3565b610732565b6040516102a291906124d8565b60405180910390f35b6102c560048036038101906102c0919061272c565b610761565b6040516102d29190612768565b60405180910390f35b6102f560048036038101906102f09190612783565b610781565b005b6102ff6107a2565b60405161030c91906127df565b60405180910390f35b61031d6107ab565b60405161032a9190612768565b60405180910390f35b61034d60048036038101906103489190612783565b6107ba565b005b61036960048036038101906103649190612639565b61083d565b60405161037691906124d8565b60405180910390f35b610387610874565b005b6103a3600480360381019061039e9190612639565b6108a9565b005b6103bf60048036038101906103ba91906127fa565b6108e2565b005b6103c96108f6565b6040516103d691906124d8565b60405180910390f35b6103f960048036038101906103f49190612827565b61090d565b6040516104069190612688565b60405180910390f35b61042960048036038101906104249190612639565b610955565b005b61044560048036038101906104409190612827565b610975565b6040516104529190612688565b60405180910390f35b6104636109c5565b005b61046d6109fa565b604051610480979695949392919061295c565b60405180910390f35b6104a3600480360381019061049e9190612783565b610afc565b6040516104b091906124d8565b60405180910390f35b6104c1610b67565b6040516104ce9190612583565b60405180910390f35b6104df610bf9565b6040516104ec9190612768565b60405180910390f35b61050f600480360381019061050a9190612639565b610c00565b60405161051c91906124d8565b60405180910390f35b61053f600480360381019061053a9190612639565b610c77565b60405161054c91906124d8565b60405180910390f35b61056f600480360381019061056a9190612a0c565b610c9a565b005b610579610ddc565b6040516105869190612768565b60405180910390f35b6105a960048036038101906105a49190612783565b610e00565b005b6105c560048036038101906105c09190612aae565b610e21565b6040516105d29190612688565b60405180910390f35b6105e3610ea8565b6040516105f09190612768565b60405180910390f35b60007f7965db0b000000000000000000000000000000000000000000000000000000007bffffffffffffffffffffffffffffffffffffffffffffffffffffffff1916827bffffffffffffffffffffffffffffffffffffffffffffffffffffffff1916148061066c575061066b82610f1f565b5b9050919050565b60606003805461068290612b1d565b80601f01602080910402602001604051908101604052809291908181526020018280546106ae90612b1d565b80156106fb5780601f106106d0576101008083540402835291602001916106fb565b820191906000526020600020905b8154815290600101906020018083116106de57829003601f168201915b5050505050905090565b600080610710610f89565b905061071d818585610f91565b600191505092915050565b6000600254905090565b60008061073d610f89565b905061074a85828561115a565b6107558585856111e6565b60019150509392505050565b600060066000838152602001908152602001600020600101549050919050565b61078a82610761565b6107938161145c565b61079d8383611470565b505050565b60006012905090565b60006107b5611551565b905090565b6107c2610f89565b73ffffffffffffffffffffffffffffffffffffffff168173ffffffffffffffffffffffffffffffffffffffff161461082f576040517f08c379a000000000000000000000000000000000000000000000000000000000815260040161082690612bc0565b60405180910390fd5b6108398282611608565b5050565b600080610848610f89565b905061086981858561085a8589610e21565b6108649190612c0f565b610f91565b600191505092915050565b7f65d7a28e3265b37a6474929f336521b332c1681b933f6cb9f3376673440d862a61089e8161145c565b6108a66116ea565b50565b7f9f2df0fed2c77648de5860a4cc508cd0818c85b8b8a1ab4ceeef8d981c8956a66108d38161145c565b6108dd838361174d565b505050565b6108f36108ed610f89565b826118a3565b50565b6000600560009054906101000a900460ff16905090565b60008060008373ffffffffffffffffffffffffffffffffffffffff1673ffffffffffffffffffffffffffffffffffffffff168152602001908152602001600020549050919050565b61096782610961610f89565b8361115a565b61097182826118a3565b5050565b60006109be600960008473ffffffffffffffffffffffffffffffffffffffff1673ffffffffffffffffffffffffffffffffffffffff168152602001908152602001600020611a70565b9050919050565b7f65d7a28e3265b37a6474929f336521b332c1681b933f6cb9f3376673440d862a6109ef8161145c565b6109f7611a7e565b50565b600060608060008060006060610a3a60077f0000000000000000000000000000000000000000000000000000000000000000611ae190919063ffffffff16565b610a6e60087f0000000000000000000000000000000000000000000000000000000000000000611ae190919063ffffffff16565b46306000801b600067ffffffffffffffff811115610a8f57610a8e612c43565b5b604051908082528060200260200182016040528015610abd5781602001602082028036833780820191505090505b507f0f00000000000000000000000000000000000000000000000000000000000000959493929190965096509650965096509650965090919293949596565b60006006600084815260200190815260200160002060000160008373ffffffffffffffffffffffffffffffffffffffff1673ffffffffffffffffffffffffffffffffffffffff16815260200190815260200160002060009054906101000a900460ff16905092915050565b606060048054610b7690612b1d565b80601f0160208091040260200160405190810160405280929190818152602001828054610ba290612b1d565b8015610bef5780601f10610bc457610100808354040283529160200191610bef565b820191906000526020600020905b815481529060010190602001808311610bd257829003601f168201915b5050505050905090565b6000801b81565b600080610c0b610f89565b90506000610c198286610e21565b905083811015610c5e576040517f08c379a0000000000000000000000000000000000000000000000000000000008152600401610c5590612ce4565b60405180910390fd5b610c6b8286868403610f91565b60019250505092915050565b600080610c82610f89565b9050610c8f8185856111e6565b600191505092915050565b83421115610cdd576040517f08c379a0000000000000000000000000000000000000000000000000000000008152600401610cd490612d50565b60405180910390fd5b60007f6e71edae12b1b97f4d1f60370fef10105fa2faae0126114a169c64845d6126c9888888610d0c8c611b91565b89604051602001610d2296959493929190612d70565b6040516020818303038152906040528051906020012090506000610d4582611bef565b90506000610d5582878787611c09565b90508973ffffffffffffffffffffffffffffffffffffffff168173ffffffffffffffffffffffffffffffffffffffff1614610dc5576040517f08c379a0000000000000000000000000000000000000000000000000000000008152600401610dbc90612e1d565b60405180910390fd5b610dd08a8a8a610f91565b50505050505050505050565b7f9f2df0fed2c77648de5860a4cc508cd0818c85b8b8a1ab4ceeef8d981c8956a681565b610e0982610761565b610e128161145c565b610e1c8383611608565b505050565b6000600160008473ffffffffffffffffffffffffffffffffffffffff1673ffffffffffffffffffffffffffffffffffffffff16815260200190815260200160002060008373ffffffffffffffffffffffffffffffffffffffff1673ffffffffffffffffffffffffffffffffffffffff16815260200190815260200160002054905092915050565b7f65d7a28e3265b37a6474929f336521b332c1681b933f6cb9f3376673440d862a81565b6000602083511015610ee857610ee183611c34565b9050610f0a565b82610ef283610f10565b6000019081610f019190612fe9565b5060ff60001b90505b92915050565b6000819050919050565b505050565b60007f01ffc9a7000000000000000000000000000000000000000000000000000000007bffffffffffffffffffffffffffffffffffffffffffffffffffffffff1916827bffffffffffffffffffffffffffffffffffffffffffffffffffffffff1916149050919050565b600033905090565b600073ffffffffffffffffffffffffffffffffffffffff168373ffffffffffffffffffffffffffffffffffffffff1603611000576040517f08c379a0000000000000000000000000000000000000000000000000000000008152600401610ff79061312d565b60405180910390fd5b600073ffffffffffffffffffffffffffffffffffffffff168273ffffffffffffffffffffffffffffffffffffffff160361106f576040517f08c379a0000000000000000000000000000000000000000000000000000000008152600401611066906131bf565b60405180910390fd5b80600160008573ffffffffffffffffffffffffffffffffffffffff1673ffffffffffffffffffffffffffffffffffffffff16815260200190815260200160002060008473ffffffffffffffffffffffffffffffffffffffff1673ffffffffffffffffffffffffffffffffffffffff168152602001908152602001600020819055508173ffffffffffffffffffffffffffffffffffffffff168373ffffffffffffffffffffffffffffffffffffffff167f8c5be1e5ebec7d5bd14f71427d1e84f3dd0314c0f7b2291e5b200ac8c7c3b9258360405161114d9190612688565b60405180910390a3505050565b60006111668484610e21565b90507fffffffffffffffffffffffffffffffffffffffffffffffffffffffffffffffff81146111e057818110156111d2576040517f08c379a00000000000000000000000000000000000000000000000000000000081526004016111c99061322b565b60405180910390fd5b6111df8484848403610f91565b5b50505050565b600073ffffffffffffffffffffffffffffffffffffffff168373ffffffffffffffffffffffffffffffffffffffff1603611255576040517f08c379a000000000000000000000000000000000000000000000000000000000815260040161124c906132bd565b60405180910390fd5b600073ffffffffffffffffffffffffffffffffffffffff168273ffffffffffffffffffffffffffffffffffffffff16036112c4576040517f08c379a00000000000000000000000000000000000000000000000000000000081526004016112bb9061334f565b60405180910390fd5b6112cf838383611c9c565b60008060008573ffffffffffffffffffffffffffffffffffffffff1673ffffffffffffffffffffffffffffffffffffffff16815260200190815260200160002054905081811015611355576040517f08c379a000000000000000000000000000000000000000000000000000000000815260040161134c906133e1565b60405180910390fd5b8181036000808673ffffffffffffffffffffffffffffffffffffffff1673ffffffffffffffffffffffffffffffffffffffff16815260200190815260200160002081905550816000808573ffffffffffffffffffffffffffffffffffffffff1673ffffffffffffffffffffffffffffffffffffffff168152602001908152602001600020600082825401925050819055508273ffffffffffffffffffffffffffffffffffffffff168473ffffffffffffffffffffffffffffffffffffffff167fddf252ad1be2c89b69c2b068fc378daa952ba7f163c4a11628f55a4df523b3ef846040516114439190612688565b60405180910390a3611456848484611cb4565b50505050565b61146d81611468610f89565b611cb9565b50565b61147a8282610afc565b61154d5760016006600084815260200190815260200160002060000160008373ffffffffffffffffffffffffffffffffffffffff1673ffffffffffffffffffffffffffffffffffffffff16815260200190815260200160002060006101000a81548160ff0219169083151502179055506114f2610f89565b73ffffffffffffffffffffffffffffffffffffffff168173ffffffffffffffffffffffffffffffffffffffff16837f2f8788117e7eff1d82e926ec794901d17c78024a50270940304540a733656f0d60405160405180910390a45b5050565b60007f000000000000000000000000000000000000000000000000000000000000000073ffffffffffffffffffffffffffffffffffffffff163073ffffffffffffffffffffffffffffffffffffffff161480156115cd57507f000000000000000000000000000000000000000000000000000000000000000046145b156115fa577f00000000000000000000000000000000000000000000000000000000000000009050611605565b611602611d3e565b90505b90565b6116128282610afc565b156116e65760006006600084815260200190815260200160002060000160008373ffffffffffffffffffffffffffffffffffffffff1673ffffffffffffffffffffffffffffffffffffffff16815260200190815260200160002060006101000a81548160ff02191690831515021790555061168b610f89565b73ffffffffffffffffffffffffffffffffffffffff168173ffffffffffffffffffffffffffffffffffffffff16837ff6391f5c32d9c69d2a47ea670b442974b53935d1edc7fd64eb21e047a839171b60405160405180910390a45b5050565b6116f2611dd4565b6000600560006101000a81548160ff0219169083151502179055507f5db9ee0a495bf2e6ff9c91a7834c1ba4fdd244a5e8aa4e537bd38aeae4b073aa611736610f89565b6040516117439190613401565b60405180910390a1565b600073ffffffffffffffffffffffffffffffffffffffff168273ffffffffffffffffffffffffffffffffffffffff16036117bc576040517f08c379a00000000000000000000000000000000000000000000000000000000081526004016117b390613468565b60405180910390fd5b6117c860008383611c9c565b80600260008282546117da9190612c0f565b92505081905550806000808473ffffffffffffffffffffffffffffffffffffffff1673ffffffffffffffffffffffffffffffffffffffff168152602001908152602001600020600082825401925050819055508173ffffffffffffffffffffffffffffffffffffffff16600073ffffffffffffffffffffffffffffffffffffffff167fddf252ad1be2c89b69c2b068fc378daa952ba7f163c4a11628f55a4df523b3ef8360405161188b9190612688565b60405180910390a361189f60008383611cb4565b5050565b600073ffffffffffffffffffffffffffffffffffffffff168273ffffffffffffffffffffffffffffffffffffffff1603611912576040517f08c379a0000000000000000000000000000000000000000000000000000000008152600401611909906134fa565b60405180910390fd5b61191e82600083611c9c565b60008060008473ffffffffffffffffffffffffffffffffffffffff1673ffffffffffffffffffffffffffffffffffffffff168152602001908152602001600020549050818110156119a4576040517f08c379a000000000000000000000000000000000000000000000000000000000815260040161199b9061358c565b60405180910390fd5b8181036000808573ffffffffffffffffffffffffffffffffffffffff1673ffffffffffffffffffffffffffffffffffffffff1681526020019081526020016000208190555081600260008282540392505081905550600073ffffffffffffffffffffffffffffffffffffffff168373ffffffffffffffffffffffffffffffffffffffff167fddf252ad1be2c89b69c2b068fc378daa952ba7f163c4a11628f55a4df523b3ef84604051611a579190612688565b60405180910390a3611a6b83600084611cb4565b505050565b600081600001549050919050565b611a86611e1d565b6001600560006101000a81548160ff0219169083151502179055507f62e78cea01bee320cd4e420270b5ea74000d11b0c9f74754ebdbfc544b05a258611aca610f89565b604051611ad79190613401565b60405180910390a1565b606060ff60001b8314611afe57611af783611e67565b9050611b8b565b818054611b0a90612b1d565b80601f0160208091040260200160405190810160405280929190818152602001828054611b3690612b1d565b8015611b835780601f10611b5857610100808354040283529160200191611b83565b820191906000526020600020905b815481529060010190602001808311611b6657829003601f168201915b505050505090505b92915050565b600080600960008473ffffffffffffffffffffffffffffffffffffffff1673ffffffffffffffffffffffffffffffffffffffff1681526020019081526020016000209050611bde81611a70565b9150611be981611edb565b50919050565b6000611c02611bfc611551565b83611ef1565b9050919050565b6000806000611c1a87878787611f32565b91509150611c2781612014565b8192505050949350505050565b600080829050601f81511115611c8157826040517f305a27a9000000000000000000000000000000000000000000000000000000008152600401611c789190612583565b60405180910390fd5b805181611c8d906135dc565b60001c1760001b915050919050565b611ca4611e1d565b611caf838383610f1a565b505050565b505050565b611cc38282610afc565b611d3a57611cd08161217a565b611cde8360001c60206121a7565b604051602001611cef929190613717565b6040516020818303038152906040526040517f08c379a0000000000000000000000000000000000000000000000000000000008152600401611d319190612583565b60405180910390fd5b5050565b60007f8b73c3c69bb8fe3d512ecc4cf759cc79239f7b179b0ffacaa9a75d522b39400f7f00000000000000000000000000000000000000000000000000000000000000007f00000000000000000000000000000000000000000000000000000000000000004630604051602001611db9959493929190613751565b60405160208183030381529060405280519060200120905090565b611ddc6108f6565b611e1b576040517f08c379a0000000000000000000000000000000000000000000000000000000008152600401611e12906137f0565b60405180910390fd5b565b611e256108f6565b15611e65576040517f08c379a0000000000000000000000000000000000000000000000000000000008152600401611e5c9061385c565b60405180910390fd5b565b60606000611e74836123e3565b90506000602067ffffffffffffffff811115611e9357611e92612c43565b5b6040519080825280601f01601f191660200182016040528015611ec55781602001600182028036833780820191505090505b5090508181528360208201528092505050919050565b6001816000016000828254019250508190555050565b60006040517f190100000000000000000000000000000000000000000000000000000000000081528360028201528260228201526042812091505092915050565b6000807f7fffffffffffffffffffffffffffffff5d576e7357a4501ddfe92f46681b20a08360001c1115611f6d57600060039150915061200b565b600060018787878760405160008152602001604052604051611f92949392919061387c565b6020604051602081039080840390855afa158015611fb4573d6000803e3d6000fd5b505050602060405103519050600073ffffffffffffffffffffffffffffffffffffffff168173ffffffffffffffffffffffffffffffffffffffff16036120025760006001925092505061200b565b80600092509250505b94509492505050565b60006004811115612028576120276138c1565b5b81600481111561203b5761203a6138c1565b5b03156121775760016004811115612055576120546138c1565b5b816004811115612068576120676138c1565b5b036120a8576040517f08c379a000000000000000000000000000000000000000000000000000000000815260040161209f9061393c565b60405180910390fd5b600260048111156120bc576120bb6138c1565b5b8160048111156120cf576120ce6138c1565b5b0361210f576040517f08c379a0000000000000000000000000000000000000000000000000000000008152600401612106906139a8565b60405180910390fd5b60036004811115612123576121226138c1565b5b816004811115612136576121356138c1565b5b03612176576040517f08c379a000000000000000000000000000000000000000000000000000000000815260040161216d90613a3a565b60405180910390fd5b5b50565b60606121a08273ffffffffffffffffffffffffffffffffffffffff16601460ff166121a7565b9050919050565b6060600060028360026121ba9190613a5a565b6121c49190612c0f565b67ffffffffffffffff8111156121dd576121dc612c43565b5b6040519080825280601f01601f19166020018201604052801561220f5781602001600182028036833780820191505090505b5090507f30000000000000000000000000000000000000000000000000000000000000008160008151811061224757612246613a9c565b5b60200101907effffffffffffffffffffffffffffffffffffffffffffffffffffffffffffff1916908160001a9053507f7800000000000000000000000000000000000000000000000000000000000000816001815181106122ab576122aa613a9c565b5b60200101907effffffffffffffffffffffffffffffffffffffffffffffffffffffffffffff1916908160001a905350600060018460026122eb9190613a5a565b6122f59190612c0f565b90505b6001811115612395577f3031323334353637383961626364656600000000000000000000000000000000600f86166010811061233757612336613a9c565b5b1a60f81b82828151811061234e5761234d613a9c565b5b60200101907effffffffffffffffffffffffffffffffffffffffffffffffffffffffffffff1916908160001a905350600485901c94508061238e90613acb565b90506122f8565b50600084146123d9576040517f08c379a00000000000000000000000000000000000000000000000000000000081526004016123d090613b40565b60405180910390fd5b8091505092915050565b60008060ff8360001c169050601f81111561242a576040517fb3512b0c00000000000000000000000000000000000000000000000000000000815260040160405180910390fd5b80915050919050565b600080fd5b60007fffffffff0000000000000000000000000000000000000000000000000000000082169050919050565b61246d81612438565b811461247857600080fd5b50565b60008135905061248a81612464565b92915050565b6000602082840312156124a6576124a5612433565b5b60006124b48482850161247b565b91505092915050565b60008115159050919050565b6124d2816124bd565b82525050565b60006020820190506124ed60008301846124c9565b92915050565b600081519050919050565b600082825260208201905092915050565b60005b8381101561252d578082015181840152602081019050612512565b60008484015250505050565b6000601f19601f8301169050919050565b6000612555826124f3565b61255f81856124fe565b935061256f81856020860161250f565b61257881612539565b840191505092915050565b6000602082019050818103600083015261259d818461254a565b905092915050565b600073ffffffffffffffffffffffffffffffffffffffff82169050919050565b60006125d0826125a5565b9050919050565b6125e0816125c5565b81146125eb57600080fd5b50565b6000813590506125fd816125d7565b92915050565b6000819050919050565b61261681612603565b811461262157600080fd5b50565b6000813590506126338161260d565b92915050565b600080604083850312156126505761264f612433565b5b600061265e858286016125ee565b925050602061266f85828601612624565b9150509250929050565b61268281612603565b82525050565b600060208201905061269d6000830184612679565b92915050565b6000806000606084860312156126bc576126bb612433565b5b60006126ca868287016125ee565b93505060206126db868287016125ee565b92505060406126ec86828701612624565b9150509250925092565b6000819050919050565b612709816126f6565b811461271457600080fd5b50565b60008135905061272681612700565b92915050565b60006020828403121561274257612741612433565b5b600061275084828501612717565b91505092915050565b612762816126f6565b82525050565b600060208201905061277d6000830184612759565b92915050565b6000806040838503121561279a57612799612433565b5b60006127a885828601612717565b92505060206127b9858286016125ee565b9150509250929050565b600060ff82169050919050565b6127d9816127c3565b82525050565b60006020820190506127f460008301846127d0565b92915050565b6000602082840312156128105761280f612433565b5b600061281e84828501612624565b91505092915050565b60006020828403121561283d5761283c612433565b5b600061284b848285016125ee565b91505092915050565b60007fff0000000000000000000000000000000000000000000000000000000000000082169050919050565b61288981612854565b82525050565b612898816125c5565b82525050565b600081519050919050565b600082825260208201905092915050565b6000819050602082019050919050565b6128d381612603565b82525050565b60006128e583836128ca565b60208301905092915050565b6000602082019050919050565b60006129098261289e565b61291381856128a9565b935061291e836128ba565b8060005b8381101561294f57815161293688826128d9565b9750612941836128f1565b925050600181019050612922565b5085935050505092915050565b600060e082019050612971600083018a612880565b8181036020830152612983818961254a565b90508181036040830152612997818861254a565b90506129a66060830187612679565b6129b3608083018661288f565b6129c060a0830185612759565b81810360c08301526129d281846128fe565b905098975050505050505050565b6129e9816127c3565b81146129f457600080fd5b50565b600081359050612a06816129e0565b92915050565b600080600080600080600060e0888a031215612a2b57612a2a612433565b5b6000612a398a828b016125ee565b9750506020612a4a8a828b016125ee565b9650506040612a5b8a828b01612624565b9550506060612a6c8a828b01612624565b9450506080612a7d8a828b016129f7565b93505060a0612a8e8a828b01612717565b92505060c0612a9f8a828b01612717565b91505092959891949750929550565b60008060408385031215612ac557612ac4612433565b5b6000612ad3858286016125ee565b9250506020612ae4858286016125ee565b9150509250929050565b7f4e487b7100000000000000000000000000000000000000000000000000000000600052602260045260246000fd5b60006002820490506001821680612b3557607f821691505b602082108103612b4857612b47612aee565b5b50919050565b7f416363657373436f6e74726f6c3a2063616e206f6e6c792072656e6f756e636560008201527f20726f6c657320666f722073656c660000000000000000000000000000000000602082015250565b6000612baa602f836124fe565b9150612bb582612b4e565b604082019050919050565b60006020820190508181036000830152612bd981612b9d565b9050919050565b7f4e487b7100000000000000000000000000000000000000000000000000000000600052601160045260246000fd5b6000612c1a82612603565b9150612c2583612603565b9250828201905080821115612c3d57612c3c612be0565b5b92915050565b7f4e487b7100000000000000000000000000000000000000000000000000000000600052604160045260246000fd5b7f45524332303a2064656372656173656420616c6c6f77616e63652062656c6f7760008201527f207a65726f000000000000000000000000000000000000000000000000000000602082015250565b6000612cce6025836124fe565b9150612cd982612c72565b604082019050919050565b60006020820190508181036000830152612cfd81612cc1565b9050919050565b7f45524332305065726d69743a206578706972656420646561646c696e65000000600082015250565b6000612d3a601d836124fe565b9150612d4582612d04565b602082019050919050565b60006020820190508181036000830152612d6981612d2d565b9050919050565b600060c082019050612d856000830189612759565b612d92602083018861288f565b612d9f604083018761288f565b612dac6060830186612679565b612db96080830185612679565b612dc660a0830184612679565b979650505050505050565b7f45524332305065726d69743a20696e76616c6964207369676e61747572650000600082015250565b6000612e07601e836124fe565b9150612e1282612dd1565b602082019050919050565b60006020820190508181036000830152612e3681612dfa565b9050919050565b60008190508160005260206000209050919050565b60006020601f8301049050919050565b600082821b905092915050565b600060088302612e9f7fffffffffffffffffffffffffffffffffffffffffffffffffffffffffffffffff82612e62565b612ea98683612e62565b95508019841693508086168417925050509392505050565b6000819050919050565b6000612ee6612ee1612edc84612603565b612ec1565b612603565b9050919050565b6000819050919050565b612f0083612ecb565b612f14612f0c82612eed565b848454612e6f565b825550505050565b600090565b612f29612f1c565b612f34818484612ef7565b505050565b5b81811015612f5857612f4d600082612f21565b600181019050612f3a565b5050565b601f821115612f9d57612f6e81612e3d565b612f7784612e52565b81016020851015612f86578190505b612f9a612f9285612e52565b830182612f39565b50505b505050565b600082821c905092915050565b6000612fc060001984600802612fa2565b1980831691505092915050565b6000612fd98383612faf565b9150826002028217905092915050565b612ff2826124f3565b67ffffffffffffffff81111561300b5761300a612c43565b5b6130158254612b1d565b613020828285612f5c565b600060209050601f8311600181146130535760008415613041578287015190505b61304b8582612fcd565b8655506130b3565b601f19841661306186612e3d565b60005b8281101561308957848901518255600182019150602085019450602081019050613064565b868310156130a657848901516130a2601f891682612faf565b8355505b6001600288020188555050505b505050505050565b7f45524332303a20617070726f76652066726f6d20746865207a65726f2061646460008201527f7265737300000000000000000000000000000000000000000000000000000000602082015250565b60006131176024836124fe565b9150613122826130bb565b604082019050919050565b600060208201905081810360008301526131468161310a565b9050919050565b7f45524332303a20617070726f766520746f20746865207a65726f20616464726560008201527f7373000000000000000000000000000000000000000000000000000000000000602082015250565b60006131a96022836124fe565b91506131b48261314d565b604082019050919050565b600060208201905081810360008301526131d88161319c565b9050919050565b7f45524332303a20696e73756666696369656e7420616c6c6f77616e6365000000600082015250565b6000613215601d836124fe565b9150613220826131df565b602082019050919050565b6000602082019050818103600083015261324481613208565b9050919050565b7f45524332303a207472616e736665722066726f6d20746865207a65726f20616460008201527f6472657373000000000000000000000000000000000000000000000000000000602082015250565b60006132a76025836124fe565b91506132b28261324b565b604082019050919050565b600060208201905081810360008301526132d68161329a565b9050919050565b7f45524332303a207472616e7366657220746f20746865207a65726f206164647260008201527f6573730000000000000000000000000000000000000000000000000000000000602082015250565b60006133396023836124fe565b9150613344826132dd565b604082019050919050565b600060208201905081810360008301526133688161332c565b9050919050565b7f45524332303a207472616e7366657220616d6f756e742065786365656473206260008201527f616c616e63650000000000000000000000000000000000000000000000000000602082015250565b60006133cb6026836124fe565b91506133d68261336f565b604082019050919050565b600060208201905081810360008301526133fa816133be565b9050919050565b6000602082019050613416600083018461288f565b92915050565b7f45524332303a206d696e7420746f20746865207a65726f206164647265737300600082015250565b6000613452601f836124fe565b915061345d8261341c565b602082019050919050565b6000602082019050818103600083015261348181613445565b9050919050565b7f45524332303a206275726e2066726f6d20746865207a65726f2061646472657360008201527f7300000000000000000000000000000000000000000000000000000000000000602082015250565b60006134e46021836124fe565b91506134ef82613488565b604082019050919050565b60006020820190508181036000830152613513816134d7565b9050919050565b7f45524332303a206275726e20616d6f756e7420657863656564732062616c616e60008201527f6365000000000000000000000000000000000000000000000000000000000000602082015250565b60006135766022836124fe565b91506135818261351a565b604082019050919050565b600060208201905081810360008301526135a581613569565b9050919050565b600081519050919050565b6000819050602082019050919050565b60006135d382516126f6565b80915050919050565b60006135e7826135ac565b826135f1846135b7565b90506135fc816135c7565b9250602082101561363c576136377fffffffffffffffffffffffffffffffffffffffffffffffffffffffffffffffff83602003600802612e62565b831692505b5050919050565b600081905092915050565b7f416363657373436f6e74726f6c3a206163636f756e7420000000000000000000600082015250565b6000613684601783613643565b915061368f8261364e565b601782019050919050565b60006136a5826124f3565b6136af8185613643565b93506136bf81856020860161250f565b80840191505092915050565b7f206973206d697373696e6720726f6c6520000000000000000000000000000000600082015250565b6000613701601183613643565b915061370c826136cb565b601182019050919050565b600061372282613677565b915061372e828561369a565b9150613739826136f4565b9150613745828461369a565b91508190509392505050565b600060a0820190506137666000830188612759565b6137736020830187612759565b6137806040830186612759565b61378d6060830185612679565b61379a608083018461288f565b9695505050505050565b7f5061757361626c653a206e6f7420706175736564000000000000000000000000600082015250565b60006137da6014836124fe565b91506137e5826137a4565b602082019050919050565b60006020820190508181036000830152613809816137cd565b9050919050565b7f5061757361626c653a2070617573656400000000000000000000000000000000600082015250565b60006138466010836124fe565b915061385182613810565b602082019050919050565b6000602082019050818103600083015261387581613839565b9050919050565b60006080820190506138916000830187612759565b61389e60208301866127d0565b6138ab6040830185612759565b6138b86060830184612759565b95945050505050565b7f4e487b7100000000000000000000000000000000000000000000000000000000600052602160045260246000fd5b7f45434453413a20696e76616c6964207369676e61747572650000000000000000600082015250565b60006139266018836124fe565b9150613931826138f0565b602082019050919050565b6000602082019050818103600083015261395581613919565b9050919050565b7f45434453413a20696e76616c6964207369676e6174757265206c656e67746800600082015250565b6000613992601f836124fe565b915061399d8261395c565b602082019050919050565b600060208201905081810360008301526139c181613985565b9050919050565b7f45434453413a20696e76616c6964207369676e6174757265202773272076616c60008201527f7565000000000000000000000000000000000000000000000000000000000000602082015250565b6000613a246022836124fe565b9150613a2f826139c8565b604082019050919050565b60006020820190508181036000830152613a5381613a17565b9050919050565b6000613a6582612603565b9150613a7083612603565b9250828202613a7e81612603565b91508282048414831517613a9557613a94612be0565b5b5092915050565b7f4e487b7100000000000000000000000000000000000000000000000000000000600052603260045260246000fd5b6000613ad682612603565b915060008203613ae957613ae8612be0565b5b600182039050919050565b7f537472696e67733a20686578206c656e67746820696e73756666696369656e74600082015250565b6000613b2a6020836124fe565b9150613b3582613af4565b602082019050919050565b60006020820190508181036000830152613b5981613b1d565b905091905056fea2646970667358221220d7208cf7b4b75eca3c76b4d68ee038ffacaa4867b4d392fa064a887325fc36b364736f6c63430008120033",
  "immutableReferences": {
    "2497": [
      {
        "length": 32,
        "start": 5588
      }
    ],
    "2499": [
      {
        "length": 32,
        "start": 5547
      }
    ],
    "2501": [
      {
        "length": 32,
        "start": 5461
      }
    ],
    "2503": [
      {
        "length": 32,
        "start": 7523
      }
    ],
    "2505": [
      {
        "length": 32,
        "start": 7556
      }
    ],
    "2508": [
      {
        "length": 32,
        "start": 2573
      }
    ],
    "2511": [
      {
        "length": 32,
        "start": 2625
      }
    ]
  },
  "source": "// SPDX-License-Identifier: MIT\r\npragma solidity ^0.8.9;\r\n\r\nimport \"@openzeppelin/contracts/token/ERC20/ERC20.sol\";\r\nimport \"@openzeppelin/contracts/token/ERC20/extensions/ERC20Burnable.sol\";\r\nimport \"@openzeppelin/contracts/security/Pausable.sol\";\r\nimport \"@openzeppelin/contracts/access/AccessControl.sol\";\r\nimport \"@openzeppelin/contracts/token/ERC20/extensions/ERC20Permit.sol\";\r\n\r\ncontract Flipkartcoin is ERC20, ERC20Burnable, Pausable, AccessControl, ERC20Permit {\r\n    bytes32 public constant PAUSER_ROLE = keccak256(\"PAUSER_ROLE\");\r\n    bytes32 public constant MINTER_ROLE = keccak256(\"MINTER_ROLE\");\r\n\r\n    constructor() ERC20(\"flipkartcoin\", \"FKC\") ERC20Permit(\"flipkartcoin\") {\r\n        _grantRole(DEFAULT_ADMIN_ROLE, msg.sender);\r\n        _grantRole(PAUSER_ROLE, msg.sender);\r\n        _mint(msg.sender, 420420420420 * 10 ** decimals());\r\n        _grantRole(MINTER_ROLE, msg.sender);\r\n    }\r\n\r\n    function pause() public onlyRole(PAUSER_ROLE) {\r\n        _pause();\r\n    }\r\n\r\n    function unpause() public onlyRole(PAUSER_ROLE) {\r\n        _unpause();\r\n    }\r\n\r\n    function mint(address to, uint256 amount) public onlyRole(MINTER_ROLE) {\r\n        _mint(to, amount);\r\n    }\r\n\r\n    function _beforeTokenTransfer(address from, address to, uint256 amount)\r\n        internal\r\n        whenNotPaused\r\n        override\r\n    {\r\n        super._beforeTokenTransfer(from, to, amount);\r\n    }\r\n}",
  "sourcePath": "D:\\FSD\\FlipKart Grid\\contracts\\Flipkartcoin.sol",
  "compiler": {
    "name": "solc",
    "version": "0.8.18+commit.87f61d96.Emscripten.clang"
  },
  "schemaVersion": "3.4.15",
  "updatedAt": "2023-08-09T16:13:58.987Z",
  "networkType": "ethereum",
  "devdoc": {
    "events": {
      "Approval(address,address,uint256)": {
        "details": "Emitted when the allowance of a `spender` for an `owner` is set by a call to {approve}. `value` is the new allowance."
      },
      "EIP712DomainChanged()": {
        "details": "MAY be emitted to signal that the domain could have changed."
      },
      "Paused(address)": {
        "details": "Emitted when the pause is triggered by `account`."
      },
      "RoleAdminChanged(bytes32,bytes32,bytes32)": {
        "details": "Emitted when `newAdminRole` is set as ``role``'s admin role, replacing `previousAdminRole` `DEFAULT_ADMIN_ROLE` is the starting admin for all roles, despite {RoleAdminChanged} not being emitted signaling this. _Available since v3.1._"
      },
      "RoleGranted(bytes32,address,address)": {
        "details": "Emitted when `account` is granted `role`. `sender` is the account that originated the contract call, an admin role bearer except when using {AccessControl-_setupRole}."
      },
      "RoleRevoked(bytes32,address,address)": {
        "details": "Emitted when `account` is revoked `role`. `sender` is the account that originated the contract call:   - if using `revokeRole`, it is the admin role bearer   - if using `renounceRole`, it is the role bearer (i.e. `account`)"
      },
      "Transfer(address,address,uint256)": {
        "details": "Emitted when `value` tokens are moved from one account (`from`) to another (`to`). Note that `value` may be zero."
      },
      "Unpaused(address)": {
        "details": "Emitted when the pause is lifted by `account`."
      }
    },
    "kind": "dev",
    "methods": {
      "DOMAIN_SEPARATOR()": {
        "details": "See {IERC20Permit-DOMAIN_SEPARATOR}."
      },
      "allowance(address,address)": {
        "details": "See {IERC20-allowance}."
      },
      "approve(address,uint256)": {
        "details": "See {IERC20-approve}. NOTE: If `amount` is the maximum `uint256`, the allowance is not updated on `transferFrom`. This is semantically equivalent to an infinite approval. Requirements: - `spender` cannot be the zero address."
      },
      "balanceOf(address)": {
        "details": "See {IERC20-balanceOf}."
      },
      "burn(uint256)": {
        "details": "Destroys `amount` tokens from the caller. See {ERC20-_burn}."
      },
      "burnFrom(address,uint256)": {
        "details": "Destroys `amount` tokens from `account`, deducting from the caller's allowance. See {ERC20-_burn} and {ERC20-allowance}. Requirements: - the caller must have allowance for ``accounts``'s tokens of at least `amount`."
      },
      "decimals()": {
        "details": "Returns the number of decimals used to get its user representation. For example, if `decimals` equals `2`, a balance of `505` tokens should be displayed to a user as `5.05` (`505 / 10 ** 2`). Tokens usually opt for a value of 18, imitating the relationship between Ether and Wei. This is the default value returned by this function, unless it's overridden. NOTE: This information is only used for _display_ purposes: it in no way affects any of the arithmetic of the contract, including {IERC20-balanceOf} and {IERC20-transfer}."
      },
      "decreaseAllowance(address,uint256)": {
        "details": "Atomically decreases the allowance granted to `spender` by the caller. This is an alternative to {approve} that can be used as a mitigation for problems described in {IERC20-approve}. Emits an {Approval} event indicating the updated allowance. Requirements: - `spender` cannot be the zero address. - `spender` must have allowance for the caller of at least `subtractedValue`."
      },
      "eip712Domain()": {
        "details": "See {EIP-5267}. _Available since v4.9._"
      },
      "getRoleAdmin(bytes32)": {
        "details": "Returns the admin role that controls `role`. See {grantRole} and {revokeRole}. To change a role's admin, use {_setRoleAdmin}."
      },
      "grantRole(bytes32,address)": {
        "details": "Grants `role` to `account`. If `account` had not been already granted `role`, emits a {RoleGranted} event. Requirements: - the caller must have ``role``'s admin role. May emit a {RoleGranted} event."
      },
      "hasRole(bytes32,address)": {
        "details": "Returns `true` if `account` has been granted `role`."
      },
      "increaseAllowance(address,uint256)": {
        "details": "Atomically increases the allowance granted to `spender` by the caller. This is an alternative to {approve} that can be used as a mitigation for problems described in {IERC20-approve}. Emits an {Approval} event indicating the updated allowance. Requirements: - `spender` cannot be the zero address."
      },
      "name()": {
        "details": "Returns the name of the token."
      },
      "nonces(address)": {
        "details": "See {IERC20Permit-nonces}."
      },
      "paused()": {
        "details": "Returns true if the contract is paused, and false otherwise."
      },
      "permit(address,address,uint256,uint256,uint8,bytes32,bytes32)": {
        "details": "See {IERC20Permit-permit}."
      },
      "renounceRole(bytes32,address)": {
        "details": "Revokes `role` from the calling account. Roles are often managed via {grantRole} and {revokeRole}: this function's purpose is to provide a mechanism for accounts to lose their privileges if they are compromised (such as when a trusted device is misplaced). If the calling account had been revoked `role`, emits a {RoleRevoked} event. Requirements: - the caller must be `account`. May emit a {RoleRevoked} event."
      },
      "revokeRole(bytes32,address)": {
        "details": "Revokes `role` from `account`. If `account` had been granted `role`, emits a {RoleRevoked} event. Requirements: - the caller must have ``role``'s admin role. May emit a {RoleRevoked} event."
      },
      "supportsInterface(bytes4)": {
        "details": "See {IERC165-supportsInterface}."
      },
      "symbol()": {
        "details": "Returns the symbol of the token, usually a shorter version of the name."
      },
      "totalSupply()": {
        "details": "See {IERC20-totalSupply}."
      },
      "transfer(address,uint256)": {
        "details": "See {IERC20-transfer}. Requirements: - `to` cannot be the zero address. - the caller must have a balance of at least `amount`."
      },
      "transferFrom(address,address,uint256)": {
        "details": "See {IERC20-transferFrom}. Emits an {Approval} event indicating the updated allowance. This is not required by the EIP. See the note at the beginning of {ERC20}. NOTE: Does not update the allowance if the current allowance is the maximum `uint256`. Requirements: - `from` and `to` cannot be the zero address. - `from` must have a balance of at least `amount`. - the caller must have allowance for ``from``'s tokens of at least `amount`."
      }
    },
    "version": 1
  },
  "userdoc": {
    "kind": "user",
    "methods": {},
    "version": 1
  }
}