{
  "contractName": "LoyalCoin",
  "abi": [
    {
      "inputs": [],
      "stateMutability": "nonpayable",
      "type": "constructor"
    },
    {
      "inputs": [],
      "name": "InvalidShortString",
      "type": "error"
    },
    {
      "inputs": [
        {
          "internalType": "string",
          "name": "str",
          "type": "string"
        }
      ],
      "name": "StringTooLong",
      "type": "error"
    },
    {
      "anonymous": false,
      "inputs": [
        {
          "indexed": true,
          "internalType": "address",
          "name": "owner",
          "type": "address"
        },
        {
          "indexed": true,
          "internalType": "address",
          "name": "spender",
          "type": "address"
        },
        {
          "indexed": false,
          "internalType": "uint256",
          "name": "value",
          "type": "uint256"
        }
      ],
      "name": "Approval",
      "type": "event"
    },
    {
      "anonymous": false,
      "inputs": [],
      "name": "EIP712DomainChanged",
      "type": "event"
    },
    {
      "anonymous": false,
      "inputs": [
        {
          "indexed": false,
          "internalType": "address",
          "name": "account",
          "type": "address"
        }
      ],
      "name": "Paused",
      "type": "event"
    },
    {
      "anonymous": false,
      "inputs": [
        {
          "indexed": true,
          "internalType": "bytes32",
          "name": "role",
          "type": "bytes32"
        },
        {
          "indexed": true,
          "internalType": "bytes32",
          "name": "previousAdminRole",
          "type": "bytes32"
        },
        {
          "indexed": true,
          "internalType": "bytes32",
          "name": "newAdminRole",
          "type": "bytes32"
        }
      ],
      "name": "RoleAdminChanged",
      "type": "event"
    },
    {
      "anonymous": false,
      "inputs": [
        {
          "indexed": true,
          "internalType": "bytes32",
          "name": "role",
          "type": "bytes32"
        },
        {
          "indexed": true,
          "internalType": "address",
          "name": "account",
          "type": "address"
        },
        {
          "indexed": true,
          "internalType": "address",
          "name": "sender",
          "type": "address"
        }
      ],
      "name": "RoleGranted",
      "type": "event"
    },
    {
      "anonymous": false,
      "inputs": [
        {
          "indexed": true,
          "internalType": "bytes32",
          "name": "role",
          "type": "bytes32"
        },
        {
          "indexed": true,
          "internalType": "address",
          "name": "account",
          "type": "address"
        },
        {
          "indexed": true,
          "internalType": "address",
          "name": "sender",
          "type": "address"
        }
      ],
      "name": "RoleRevoked",
      "type": "event"
    },
    {
      "anonymous": false,
      "inputs": [
        {
          "indexed": true,
          "internalType": "address",
          "name": "account",
          "type": "address"
        },
        {
          "indexed": false,
          "internalType": "uint256",
          "name": "amount",
          "type": "uint256"
        }
      ],
      "name": "TokensEarned",
      "type": "event"
    },
    {
      "anonymous": false,
      "inputs": [
        {
          "indexed": true,
          "internalType": "address",
          "name": "account",
          "type": "address"
        },
        {
          "indexed": false,
          "internalType": "uint256",
          "name": "amount",
          "type": "uint256"
        }
      ],
      "name": "TokensRedeemed",
      "type": "event"
    },
    {
      "anonymous": false,
      "inputs": [
        {
          "indexed": true,
          "internalType": "address",
          "name": "from",
          "type": "address"
        },
        {
          "indexed": true,
          "internalType": "address",
          "name": "to",
          "type": "address"
        },
        {
          "indexed": false,
          "internalType": "uint256",
          "name": "value",
          "type": "uint256"
        }
      ],
      "name": "Transfer",
      "type": "event"
    },
    {
      "anonymous": false,
      "inputs": [
        {
          "indexed": false,
          "internalType": "address",
          "name": "account",
          "type": "address"
        }
      ],
      "name": "Unpaused",
      "type": "event"
    },
    {
      "inputs": [],
      "name": "DEFAULT_ADMIN_ROLE",
      "outputs": [
        {
          "internalType": "bytes32",
          "name": "",
          "type": "bytes32"
        }
      ],
      "stateMutability": "view",
      "type": "function",
      "constant": true
    },
    {
      "inputs": [],
      "name": "DOMAIN_SEPARATOR",
      "outputs": [
        {
          "internalType": "bytes32",
          "name": "",
          "type": "bytes32"
        }
      ],
      "stateMutability": "view",
      "type": "function",
      "constant": true
    },
    {
      "inputs": [],
      "name": "MINTER_ROLE",
      "outputs": [
        {
          "internalType": "bytes32",
          "name": "",
          "type": "bytes32"
        }
      ],
      "stateMutability": "view",
      "type": "function",
      "constant": true
    },
    {
      "inputs": [],
      "name": "PAUSER_ROLE",
      "outputs": [
        {
          "internalType": "bytes32",
          "name": "",
          "type": "bytes32"
        }
      ],
      "stateMutability": "view",
      "type": "function",
      "constant": true
    },
    {
      "inputs": [
        {
          "internalType": "address",
          "name": "owner",
          "type": "address"
        },
        {
          "internalType": "address",
          "name": "spender",
          "type": "address"
        }
      ],
      "name": "allowance",
      "outputs": [
        {
          "internalType": "uint256",
          "name": "",
          "type": "uint256"
        }
      ],
      "stateMutability": "view",
      "type": "function",
      "constant": true
    },
    {
      "inputs": [
        {
          "internalType": "address",
          "name": "spender",
          "type": "address"
        },
        {
          "internalType": "uint256",
          "name": "amount",
          "type": "uint256"
        }
      ],
      "name": "approve",
      "outputs": [
        {
          "internalType": "bool",
          "name": "",
          "type": "bool"
        }
      ],
      "stateMutability": "nonpayable",
      "type": "function"
    },
    {
      "inputs": [
        {
          "internalType": "address",
          "name": "account",
          "type": "address"
        }
      ],
      "name": "balanceOf",
      "outputs": [
        {
          "internalType": "uint256",
          "name": "",
          "type": "uint256"
        }
      ],
      "stateMutability": "view",
      "type": "function",
      "constant": true
    },
    {
      "inputs": [
        {
          "internalType": "uint256",
          "name": "amount",
          "type": "uint256"
        }
      ],
      "name": "burn",
      "outputs": [],
      "stateMutability": "nonpayable",
      "type": "function"
    },
    {
      "inputs": [
        {
          "internalType": "address",
          "name": "account",
          "type": "address"
        },
        {
          "internalType": "uint256",
          "name": "amount",
          "type": "uint256"
        }
      ],
      "name": "burnFrom",
      "outputs": [],
      "stateMutability": "nonpayable",
      "type": "function"
    },
    {
      "inputs": [],
      "name": "decimals",
      "outputs": [
        {
          "internalType": "uint8",
          "name": "",
          "type": "uint8"
        }
      ],
      "stateMutability": "view",
      "type": "function",
      "constant": true
    },
    {
      "inputs": [
        {
          "internalType": "address",
          "name": "spender",
          "type": "address"
        },
        {
          "internalType": "uint256",
          "name": "subtractedValue",
          "type": "uint256"
        }
      ],
      "name": "decreaseAllowance",
      "outputs": [
        {
          "internalType": "bool",
          "name": "",
          "type": "bool"
        }
      ],
      "stateMutability": "nonpayable",
      "type": "function"
    },
    {
      "inputs": [],
      "name": "eip712Domain",
      "outputs": [
        {
          "internalType": "bytes1",
          "name": "fields",
          "type": "bytes1"
        },
        {
          "internalType": "string",
          "name": "name",
          "type": "string"
        },
        {
          "internalType": "string",
          "name": "version",
          "type": "string"
        },
        {
          "internalType": "uint256",
          "name": "chainId",
          "type": "uint256"
        },
        {
          "internalType": "address",
          "name": "verifyingContract",
          "type": "address"
        },
        {
          "internalType": "bytes32",
          "name": "salt",
          "type": "bytes32"
        },
        {
          "internalType": "uint256[]",
          "name": "extensions",
          "type": "uint256[]"
        }
      ],
      "stateMutability": "view",
      "type": "function",
      "constant": true
    },
    {
      "inputs": [
        {
          "internalType": "bytes32",
          "name": "role",
          "type": "bytes32"
        }
      ],
      "name": "getRoleAdmin",
      "outputs": [
        {
          "internalType": "bytes32",
          "name": "",
          "type": "bytes32"
        }
      ],
      "stateMutability": "view",
      "type": "function",
      "constant": true
    },
    {
      "inputs": [
        {
          "internalType": "bytes32",
          "name": "role",
          "type": "bytes32"
        },
        {
          "internalType": "address",
          "name": "account",
          "type": "address"
        }
      ],
      "name": "grantRole",
      "outputs": [],
      "stateMutability": "nonpayable",
      "type": "function"
    },
    {
      "inputs": [
        {
          "internalType": "bytes32",
          "name": "role",
          "type": "bytes32"
        },
        {
          "internalType": "address",
          "name": "account",
          "type": "address"
        }
      ],
      "name": "hasRole",
      "outputs": [
        {
          "internalType": "bool",
          "name": "",
          "type": "bool"
        }
      ],
      "stateMutability": "view",
      "type": "function",
      "constant": true
    },
    {
      "inputs": [
        {
          "internalType": "address",
          "name": "spender",
          "type": "address"
        },
        {
          "internalType": "uint256",
          "name": "addedValue",
          "type": "uint256"
        }
      ],
      "name": "increaseAllowance",
      "outputs": [
        {
          "internalType": "bool",
          "name": "",
          "type": "bool"
        }
      ],
      "stateMutability": "nonpayable",
      "type": "function"
    },
    {
      "inputs": [],
      "name": "name",
      "outputs": [
        {
          "internalType": "string",
          "name": "",
          "type": "string"
        }
      ],
      "stateMutability": "view",
      "type": "function",
      "constant": true
    },
    {
      "inputs": [
        {
          "internalType": "address",
          "name": "owner",
          "type": "address"
        }
      ],
      "name": "nonces",
      "outputs": [
        {
          "internalType": "uint256",
          "name": "",
          "type": "uint256"
        }
      ],
      "stateMutability": "view",
      "type": "function",
      "constant": true
    },
    {
      "inputs": [],
      "name": "paused",
      "outputs": [
        {
          "internalType": "bool",
          "name": "",
          "type": "bool"
        }
      ],
      "stateMutability": "view",
      "type": "function",
      "constant": true
    },
    {
      "inputs": [
        {
          "internalType": "address",
          "name": "owner",
          "type": "address"
        },
        {
          "internalType": "address",
          "name": "spender",
          "type": "address"
        },
        {
          "internalType": "uint256",
          "name": "value",
          "type": "uint256"
        },
        {
          "internalType": "uint256",
          "name": "deadline",
          "type": "uint256"
        },
        {
          "internalType": "uint8",
          "name": "v",
          "type": "uint8"
        },
        {
          "internalType": "bytes32",
          "name": "r",
          "type": "bytes32"
        },
        {
          "internalType": "bytes32",
          "name": "s",
          "type": "bytes32"
        }
      ],
      "name": "permit",
      "outputs": [],
      "stateMutability": "nonpayable",
      "type": "function"
    },
    {
      "inputs": [
        {
          "internalType": "bytes32",
          "name": "role",
          "type": "bytes32"
        },
        {
          "internalType": "address",
          "name": "account",
          "type": "address"
        }
      ],
      "name": "renounceRole",
      "outputs": [],
      "stateMutability": "nonpayable",
      "type": "function"
    },
    {
      "inputs": [
        {
          "internalType": "bytes32",
          "name": "role",
          "type": "bytes32"
        },
        {
          "internalType": "address",
          "name": "account",
          "type": "address"
        }
      ],
      "name": "revokeRole",
      "outputs": [],
      "stateMutability": "nonpayable",
      "type": "function"
    },
    {
      "inputs": [
        {
          "internalType": "bytes4",
          "name": "interfaceId",
          "type": "bytes4"
        }
      ],
      "name": "supportsInterface",
      "outputs": [
        {
          "internalType": "bool",
          "name": "",
          "type": "bool"
        }
      ],
      "stateMutability": "view",
      "type": "function",
      "constant": true
    },
    {
      "inputs": [],
      "name": "symbol",
      "outputs": [
        {
          "internalType": "string",
          "name": "",
          "type": "string"
        }
      ],
      "stateMutability": "view",
      "type": "function",
      "constant": true
    },
    {
      "inputs": [],
      "name": "totalSupply",
      "outputs": [
        {
          "internalType": "uint256",
          "name": "",
          "type": "uint256"
        }
      ],
      "stateMutability": "view",
      "type": "function",
      "constant": true
    },
    {
      "inputs": [
        {
          "internalType": "address",
          "name": "to",
          "type": "address"
        },
        {
          "internalType": "uint256",
          "name": "amount",
          "type": "uint256"
        }
      ],
      "name": "transfer",
      "outputs": [
        {
          "internalType": "bool",
          "name": "",
          "type": "bool"
        }
      ],
      "stateMutability": "nonpayable",
      "type": "function"
    },
    {
      "inputs": [
        {
          "internalType": "address",
          "name": "from",
          "type": "address"
        },
        {
          "internalType": "address",
          "name": "to",
          "type": "address"
        },
        {
          "internalType": "uint256",
          "name": "amount",
          "type": "uint256"
        }
      ],
      "name": "transferFrom",
      "outputs": [
        {
          "internalType": "bool",
          "name": "",
          "type": "bool"
        }
      ],
      "stateMutability": "nonpayable",
      "type": "function"
    },
    {
      "inputs": [],
      "name": "pause",
      "outputs": [],
      "stateMutability": "nonpayable",
      "type": "function"
    },
    {
      "inputs": [],
      "name": "unpause",
      "outputs": [],
      "stateMutability": "nonpayable",
      "type": "function"
    },
    {
      "inputs": [
        {
          "internalType": "address",
          "name": "to",
          "type": "address"
        },
        {
          "internalType": "uint256",
          "name": "amount",
          "type": "uint256"
        }
      ],
      "name": "mint",
      "outputs": [],
      "stateMutability": "nonpayable",
      "type": "function"
    },
    {
      "inputs": [
        {
          "internalType": "uint256",
          "name": "amount",
          "type": "uint256"
        }
      ],
      "name": "earnTokens",
      "outputs": [],
      "stateMutability": "nonpayable",
      "type": "function"
    },
    {
      "inputs": [
        {
          "internalType": "uint256",
          "name": "amount",
          "type": "uint256"
        }
      ],
      "name": "redeemTokens",
      "outputs": [],
      "stateMutability": "nonpayable",
      "type": "function"
    }
  ],
  "bytecode": "0x6101606040523480156200001257600080fd5b506040518060400160405280600981526020017f4c6f79616c436f696e0000000000000000000000000000000000000000000000815250806040518060400160405280600181526020017f31000000000000000000000000000000000000000000000000000000000000008152506040518060400160405280600981526020017f4c6f79616c436f696e00000000000000000000000000000000000000000000008152506040518060400160405280600381526020017f4c435300000000000000000000000000000000000000000000000000000000008152508160039081620000fd9190620009d1565b5080600490816200010f9190620009d1565b5050506000600560006101000a81548160ff02191690831515021790555062000148600783620002a860201b620010bd1790919060201c565b61012081815250506200016b600882620002a860201b620010bd1790919060201c565b6101408181525050818051906020012060e08181525050808051906020012061010081815250504660a08181525050620001aa6200030560201b60201c565b608081815250503073ffffffffffffffffffffffffffffffffffffffff1660c08173ffffffffffffffffffffffffffffffffffffffff1681525050505050620001fd6000801b336200036260201b60201c565b6200022f7f65d7a28e3265b37a6474929f336521b332c1681b933f6cb9f3376673440d862a336200036260201b60201c565b6200027033620002446200045460201b60201c565b600a62000252919062000c48565b6461e302834462000264919062000c99565b6200045d60201b60201c565b620002a27f9f2df0fed2c77648de5860a4cc508cd0818c85b8b8a1ab4ceeef8d981c8956a6336200036260201b60201c565b62001043565b6000602083511015620002ce57620002c683620005ca60201b60201c565b9050620002ff565b82620002e5836200063760201b620011011760201c565b6000019081620002f69190620009d1565b5060ff60001b90505b92915050565b60007f8b73c3c69bb8fe3d512ecc4cf759cc79239f7b179b0ffacaa9a75d522b39400f60e0516101005146306040516020016200034795949392919062000d55565b60405160208183030381529060405280519060200120905090565b6200037482826200064160201b60201c565b620004505760016006600084815260200190815260200160002060000160008373ffffffffffffffffffffffffffffffffffffffff1673ffffffffffffffffffffffffffffffffffffffff16815260200190815260200160002060006101000a81548160ff021916908315150217905550620003f5620006ac60201b60201c565b73ffffffffffffffffffffffffffffffffffffffff168173ffffffffffffffffffffffffffffffffffffffff16837f2f8788117e7eff1d82e926ec794901d17c78024a50270940304540a733656f0d60405160405180910390a45b5050565b60006012905090565b600073ffffffffffffffffffffffffffffffffffffffff168273ffffffffffffffffffffffffffffffffffffffff1603620004cf576040517f08c379a0000000000000000000000000000000000000000000000000000000008152600401620004c69062000e13565b60405180910390fd5b620004e360008383620006b460201b60201c565b8060026000828254620004f7919062000e35565b92505081905550806000808473ffffffffffffffffffffffffffffffffffffffff1673ffffffffffffffffffffffffffffffffffffffff168152602001908152602001600020600082825401925050819055508173ffffffffffffffffffffffffffffffffffffffff16600073ffffffffffffffffffffffffffffffffffffffff167fddf252ad1be2c89b69c2b068fc378daa952ba7f163c4a11628f55a4df523b3ef83604051620005aa919062000e70565b60405180910390a3620005c660008383620006e160201b60201c565b5050565b600080829050601f815111156200061a57826040517f305a27a900000000000000000000000000000000000000000000000000000000815260040162000611919062000f0b565b60405180910390fd5b805181620006289062000f61565b60001c1760001b915050919050565b6000819050919050565b60006006600084815260200190815260200160002060000160008373ffffffffffffffffffffffffffffffffffffffff1673ffffffffffffffffffffffffffffffffffffffff16815260200190815260200160002060009054906101000a900460ff16905092915050565b600033905090565b620006c4620006e660201b60201c565b620006dc8383836200073b60201b6200110b1760201c565b505050565b505050565b620006f66200074060201b60201c565b1562000739576040517f08c379a0000000000000000000000000000000000000000000000000000000008152600401620007309062001021565b60405180910390fd5b565b505050565b6000600560009054906101000a900460ff16905090565b600081519050919050565b7f4e487b7100000000000000000000000000000000000000000000000000000000600052604160045260246000fd5b7f4e487b7100000000000000000000000000000000000000000000000000000000600052602260045260246000fd5b60006002820490506001821680620007d957607f821691505b602082108103620007ef57620007ee62000791565b5b50919050565b60008190508160005260206000209050919050565b60006020601f8301049050919050565b600082821b905092915050565b600060088302620008597fffffffffffffffffffffffffffffffffffffffffffffffffffffffffffffffff826200081a565b6200086586836200081a565b95508019841693508086168417925050509392505050565b6000819050919050565b6000819050919050565b6000620008b2620008ac620008a6846200087d565b62000887565b6200087d565b9050919050565b6000819050919050565b620008ce8362000891565b620008e6620008dd82620008b9565b84845462000827565b825550505050565b600090565b620008fd620008ee565b6200090a818484620008c3565b505050565b5b81811015620009325762000926600082620008f3565b60018101905062000910565b5050565b601f82111562000981576200094b81620007f5565b62000956846200080a565b8101602085101562000966578190505b6200097e62000975856200080a565b8301826200090f565b50505b505050565b600082821c905092915050565b6000620009a66000198460080262000986565b1980831691505092915050565b6000620009c1838362000993565b9150826002028217905092915050565b620009dc8262000757565b67ffffffffffffffff811115620009f857620009f762000762565b5b62000a048254620007c0565b62000a1182828562000936565b600060209050601f83116001811462000a49576000841562000a34578287015190505b62000a408582620009b3565b86555062000ab0565b601f19841662000a5986620007f5565b60005b8281101562000a835784890151825560018201915060208501945060208101905062000a5c565b8683101562000aa3578489015162000a9f601f89168262000993565b8355505b6001600288020188555050505b505050505050565b7f4e487b7100000000000000000000000000000000000000000000000000000000600052601160045260246000fd5b60008160011c9050919050565b6000808291508390505b600185111562000b465780860481111562000b1e5762000b1d62000ab8565b5b600185161562000b2e5780820291505b808102905062000b3e8562000ae7565b945062000afe565b94509492505050565b60008262000b61576001905062000c34565b8162000b71576000905062000c34565b816001811462000b8a576002811462000b955762000bcb565b600191505062000c34565b60ff84111562000baa5762000ba962000ab8565b5b8360020a91508482111562000bc45762000bc362000ab8565b5b5062000c34565b5060208310610133831016604e8410600b841016171562000c055782820a90508381111562000bff5762000bfe62000ab8565b5b62000c34565b62000c14848484600162000af4565b9250905081840481111562000c2e5762000c2d62000ab8565b5b81810290505b9392505050565b600060ff82169050919050565b600062000c55826200087d565b915062000c628362000c3b565b925062000c917fffffffffffffffffffffffffffffffffffffffffffffffffffffffffffffffff848462000b4f565b905092915050565b600062000ca6826200087d565b915062000cb3836200087d565b925082820262000cc3816200087d565b9150828204841483151762000cdd5762000cdc62000ab8565b5b5092915050565b6000819050919050565b62000cf98162000ce4565b82525050565b62000d0a816200087d565b82525050565b600073ffffffffffffffffffffffffffffffffffffffff82169050919050565b600062000d3d8262000d10565b9050919050565b62000d4f8162000d30565b82525050565b600060a08201905062000d6c600083018862000cee565b62000d7b602083018762000cee565b62000d8a604083018662000cee565b62000d99606083018562000cff565b62000da8608083018462000d44565b9695505050505050565b600082825260208201905092915050565b7f45524332303a206d696e7420746f20746865207a65726f206164647265737300600082015250565b600062000dfb601f8362000db2565b915062000e088262000dc3565b602082019050919050565b6000602082019050818103600083015262000e2e8162000dec565b9050919050565b600062000e42826200087d565b915062000e4f836200087d565b925082820190508082111562000e6a5762000e6962000ab8565b5b92915050565b600060208201905062000e87600083018462000cff565b92915050565b60005b8381101562000ead57808201518184015260208101905062000e90565b60008484015250505050565b6000601f19601f8301169050919050565b600062000ed78262000757565b62000ee3818562000db2565b935062000ef581856020860162000e8d565b62000f008162000eb9565b840191505092915050565b6000602082019050818103600083015262000f27818462000eca565b905092915050565b600081519050919050565b6000819050602082019050919050565b600062000f58825162000ce4565b80915050919050565b600062000f6e8262000f2f565b8262000f7a8462000f3a565b905062000f878162000f4a565b9250602082101562000fca5762000fc57fffffffffffffffffffffffffffffffffffffffffffffffffffffffffffffffff836020036008026200081a565b831692505b5050919050565b7f5061757361626c653a2070617573656400000000000000000000000000000000600082015250565b60006200100960108362000db2565b9150620010168262000fd1565b602082019050919050565b600060208201905081810360008301526200103c8162000ffa565b9050919050565b60805160a05160c05160e051610100516101205161014051613e5f6200109e6000396000610b2d01526000610af901526000611f7501526000611f540152600061189c015260006118f20152600061191b0152613e5f6000f3fe608060405234801561001057600080fd5b50600436106101f05760003560e01c806370a082311161010f578063a457c2d7116100a2578063d539139311610071578063d5391393146105bf578063d547741f146105dd578063dd62ed3e146105f9578063e63ab1e914610629576101f0565b8063a457c2d714610527578063a6e158f814610557578063a9059cbb14610573578063d505accf146105a3576101f0565b806384b0196e116100de57806384b0196e1461049757806391d14854146104bb57806395d89b41146104eb578063a217fddf14610509576101f0565b806370a082311461041157806379cc6790146104415780637ecebe001461045d5780638456cb591461048d576101f0565b8063313ce567116101875780633f4ba83a116101565780633f4ba83a146103b157806340c10f19146103bb57806342966c68146103d75780635c975abb146103f3576101f0565b8063313ce567146103295780633644e5151461034757806336568abe146103655780633950935114610381576101f0565b806323b872dd116101c357806323b872dd14610291578063248a9ca3146102c15780632f2ff15d146102f157806330407d761461030d576101f0565b806301ffc9a7146101f557806306fdde0314610225578063095ea7b31461024357806318160ddd14610273575b600080fd5b61020f600480360381019061020a9190612681565b610647565b60405161021c91906126c9565b60405180910390f35b61022d6106c1565b60405161023a9190612774565b60405180910390f35b61025d6004803603810190610258919061282a565b610753565b60405161026a91906126c9565b60405180910390f35b61027b610776565b6040516102889190612879565b60405180910390f35b6102ab60048036038101906102a69190612894565b610780565b6040516102b891906126c9565b60405180910390f35b6102db60048036038101906102d6919061291d565b6107af565b6040516102e89190612959565b60405180910390f35b61030b60048036038101906103069190612974565b6107cf565b005b610327600480360381019061032291906129b4565b6107f0565b005b61033161088e565b60405161033e91906129fd565b60405180910390f35b61034f610897565b60405161035c9190612959565b60405180910390f35b61037f600480360381019061037a9190612974565b6108a6565b005b61039b6004803603810190610396919061282a565b610929565b6040516103a891906126c9565b60405180910390f35b6103b9610960565b005b6103d560048036038101906103d0919061282a565b610995565b005b6103f160048036038101906103ec91906129b4565b6109ce565b005b6103fb6109e2565b60405161040891906126c9565b60405180910390f35b61042b60048036038101906104269190612a18565b6109f9565b6040516104389190612879565b60405180910390f35b61045b6004803603810190610456919061282a565b610a41565b005b61047760048036038101906104729190612a18565b610a61565b6040516104849190612879565b60405180910390f35b610495610ab1565b005b61049f610ae6565b6040516104b29796959493929190612b4d565b60405180910390f35b6104d560048036038101906104d09190612974565b610be8565b6040516104e291906126c9565b60405180910390f35b6104f3610c53565b6040516105009190612774565b60405180910390f35b610511610ce5565b60405161051e9190612959565b60405180910390f35b610541600480360381019061053c919061282a565b610cec565b60405161054e91906126c9565b60405180910390f35b610571600480360381019061056c91906129b4565b610d63565b005b61058d6004803603810190610588919061282a565b610e68565b60405161059a91906126c9565b60405180910390f35b6105bd60048036038101906105b89190612bfd565b610e8b565b005b6105c7610fcd565b6040516105d49190612959565b60405180910390f35b6105f760048036038101906105f29190612974565b610ff1565b005b610613600480360381019061060e9190612c9f565b611012565b6040516106209190612879565b60405180910390f35b610631611099565b60405161063e9190612959565b60405180910390f35b60007f7965db0b000000000000000000000000000000000000000000000000000000007bffffffffffffffffffffffffffffffffffffffffffffffffffffffff1916827bffffffffffffffffffffffffffffffffffffffffffffffffffffffff191614806106ba57506106b982611110565b5b9050919050565b6060600380546106d090612d0e565b80601f01602080910402602001604051908101604052809291908181526020018280546106fc90612d0e565b80156107495780601f1061071e57610100808354040283529160200191610749565b820191906000526020600020905b81548152906001019060200180831161072c57829003601f168201915b5050505050905090565b60008061075e61117a565b905061076b818585611182565b600191505092915050565b6000600254905090565b60008061078b61117a565b905061079885828561134b565b6107a38585856113d7565b60019150509392505050565b600060066000838152602001908152602001600020600101549050919050565b6107d8826107af565b6107e18161164d565b6107eb8383611661565b505050565b60008111610833576040517f08c379a000000000000000000000000000000000000000000000000000000000815260040161082a90612d8b565b60405180910390fd5b61083d3382611742565b3373ffffffffffffffffffffffffffffffffffffffff167f949b66d6baaf4912605d046be8fef8d8dac6040bb52018e69a7a805279fbeb15826040516108839190612879565b60405180910390a250565b60006012905090565b60006108a1611898565b905090565b6108ae61117a565b73ffffffffffffffffffffffffffffffffffffffff168173ffffffffffffffffffffffffffffffffffffffff161461091b576040517f08c379a000000000000000000000000000000000000000000000000000000000815260040161091290612e1d565b60405180910390fd5b610925828261194f565b5050565b60008061093461117a565b90506109558185856109468589611012565b6109509190612e6c565b611182565b600191505092915050565b7f65d7a28e3265b37a6474929f336521b332c1681b933f6cb9f3376673440d862a61098a8161164d565b610992611a31565b50565b7f9f2df0fed2c77648de5860a4cc508cd0818c85b8b8a1ab4ceeef8d981c8956a66109bf8161164d565b6109c98383611742565b505050565b6109df6109d961117a565b82611a94565b50565b6000600560009054906101000a900460ff16905090565b60008060008373ffffffffffffffffffffffffffffffffffffffff1673ffffffffffffffffffffffffffffffffffffffff168152602001908152602001600020549050919050565b610a5382610a4d61117a565b8361134b565b610a5d8282611a94565b5050565b6000610aaa600960008473ffffffffffffffffffffffffffffffffffffffff1673ffffffffffffffffffffffffffffffffffffffff168152602001908152602001600020611c61565b9050919050565b7f65d7a28e3265b37a6474929f336521b332c1681b933f6cb9f3376673440d862a610adb8161164d565b610ae3611c6f565b50565b600060608060008060006060610b2660077f0000000000000000000000000000000000000000000000000000000000000000611cd290919063ffffffff16565b610b5a60087f0000000000000000000000000000000000000000000000000000000000000000611cd290919063ffffffff16565b46306000801b600067ffffffffffffffff811115610b7b57610b7a612ea0565b5b604051908082528060200260200182016040528015610ba95781602001602082028036833780820191505090505b507f0f00000000000000000000000000000000000000000000000000000000000000959493929190965096509650965096509650965090919293949596565b60006006600084815260200190815260200160002060000160008373ffffffffffffffffffffffffffffffffffffffff1673ffffffffffffffffffffffffffffffffffffffff16815260200190815260200160002060009054906101000a900460ff16905092915050565b606060048054610c6290612d0e565b80601f0160208091040260200160405190810160405280929190818152602001828054610c8e90612d0e565b8015610cdb5780601f10610cb057610100808354040283529160200191610cdb565b820191906000526020600020905b815481529060010190602001808311610cbe57829003601f168201915b5050505050905090565b6000801b81565b600080610cf761117a565b90506000610d058286611012565b905083811015610d4a576040517f08c379a0000000000000000000000000000000000000000000000000000000008152600401610d4190612f41565b60405180910390fd5b610d578286868403611182565b60019250505092915050565b60008111610da6576040517f08c379a0000000000000000000000000000000000000000000000000000000008152600401610d9d90612d8b565b60405180910390fd5b80610db0336109f9565b1015610df1576040517f08c379a0000000000000000000000000000000000000000000000000000000008152600401610de890612fad565b60405180910390fd5b6000600282610e009190612fcd565b9050610e0c3382611742565b610e163383611a94565b3373ffffffffffffffffffffffffffffffffffffffff167fcdd4c59de26b3f8623e6012ab9bc32a995eda3452d89c941fc8af6b74276ad3883604051610e5c9190612879565b60405180910390a25050565b600080610e7361117a565b9050610e808185856113d7565b600191505092915050565b83421115610ece576040517f08c379a0000000000000000000000000000000000000000000000000000000008152600401610ec59061305b565b60405180910390fd5b60007f6e71edae12b1b97f4d1f60370fef10105fa2faae0126114a169c64845d6126c9888888610efd8c611d82565b89604051602001610f139695949392919061307b565b6040516020818303038152906040528051906020012090506000610f3682611de0565b90506000610f4682878787611dfa565b90508973ffffffffffffffffffffffffffffffffffffffff168173ffffffffffffffffffffffffffffffffffffffff1614610fb6576040517f08c379a0000000000000000000000000000000000000000000000000000000008152600401610fad90613128565b60405180910390fd5b610fc18a8a8a611182565b50505050505050505050565b7f9f2df0fed2c77648de5860a4cc508cd0818c85b8b8a1ab4ceeef8d981c8956a681565b610ffa826107af565b6110038161164d565b61100d838361194f565b505050565b6000600160008473ffffffffffffffffffffffffffffffffffffffff1673ffffffffffffffffffffffffffffffffffffffff16815260200190815260200160002060008373ffffffffffffffffffffffffffffffffffffffff1673ffffffffffffffffffffffffffffffffffffffff16815260200190815260200160002054905092915050565b7f65d7a28e3265b37a6474929f336521b332c1681b933f6cb9f3376673440d862a81565b60006020835110156110d9576110d283611e25565b90506110fb565b826110e383611101565b60000190816110f291906132f4565b5060ff60001b90505b92915050565b6000819050919050565b505050565b60007f01ffc9a7000000000000000000000000000000000000000000000000000000007bffffffffffffffffffffffffffffffffffffffffffffffffffffffff1916827bffffffffffffffffffffffffffffffffffffffffffffffffffffffff1916149050919050565b600033905090565b600073ffffffffffffffffffffffffffffffffffffffff168373ffffffffffffffffffffffffffffffffffffffff16036111f1576040517f08c379a00000000000000000000000000000000000000000000000000000000081526004016111e890613438565b60405180910390fd5b600073ffffffffffffffffffffffffffffffffffffffff168273ffffffffffffffffffffffffffffffffffffffff1603611260576040517f08c379a0000000000000000000000000000000000000000000000000000000008152600401611257906134ca565b60405180910390fd5b80600160008573ffffffffffffffffffffffffffffffffffffffff1673ffffffffffffffffffffffffffffffffffffffff16815260200190815260200160002060008473ffffffffffffffffffffffffffffffffffffffff1673ffffffffffffffffffffffffffffffffffffffff168152602001908152602001600020819055508173ffffffffffffffffffffffffffffffffffffffff168373ffffffffffffffffffffffffffffffffffffffff167f8c5be1e5ebec7d5bd14f71427d1e84f3dd0314c0f7b2291e5b200ac8c7c3b9258360405161133e9190612879565b60405180910390a3505050565b60006113578484611012565b90507fffffffffffffffffffffffffffffffffffffffffffffffffffffffffffffffff81146113d157818110156113c3576040517f08c379a00000000000000000000000000000000000000000000000000000000081526004016113ba90613536565b60405180910390fd5b6113d08484848403611182565b5b50505050565b600073ffffffffffffffffffffffffffffffffffffffff168373ffffffffffffffffffffffffffffffffffffffff1603611446576040517f08c379a000000000000000000000000000000000000000000000000000000000815260040161143d906135c8565b60405180910390fd5b600073ffffffffffffffffffffffffffffffffffffffff168273ffffffffffffffffffffffffffffffffffffffff16036114b5576040517f08c379a00000000000000000000000000000000000000000000000000000000081526004016114ac9061365a565b60405180910390fd5b6114c0838383611e8d565b60008060008573ffffffffffffffffffffffffffffffffffffffff1673ffffffffffffffffffffffffffffffffffffffff16815260200190815260200160002054905081811015611546576040517f08c379a000000000000000000000000000000000000000000000000000000000815260040161153d906136ec565b60405180910390fd5b8181036000808673ffffffffffffffffffffffffffffffffffffffff1673ffffffffffffffffffffffffffffffffffffffff16815260200190815260200160002081905550816000808573ffffffffffffffffffffffffffffffffffffffff1673ffffffffffffffffffffffffffffffffffffffff168152602001908152602001600020600082825401925050819055508273ffffffffffffffffffffffffffffffffffffffff168473ffffffffffffffffffffffffffffffffffffffff167fddf252ad1be2c89b69c2b068fc378daa952ba7f163c4a11628f55a4df523b3ef846040516116349190612879565b60405180910390a3611647848484611ea5565b50505050565b61165e8161165961117a565b611eaa565b50565b61166b8282610be8565b61173e5760016006600084815260200190815260200160002060000160008373ffffffffffffffffffffffffffffffffffffffff1673ffffffffffffffffffffffffffffffffffffffff16815260200190815260200160002060006101000a81548160ff0219169083151502179055506116e361117a565b73ffffffffffffffffffffffffffffffffffffffff168173ffffffffffffffffffffffffffffffffffffffff16837f2f8788117e7eff1d82e926ec794901d17c78024a50270940304540a733656f0d60405160405180910390a45b5050565b600073ffffffffffffffffffffffffffffffffffffffff168273ffffffffffffffffffffffffffffffffffffffff16036117b1576040517f08c379a00000000000000000000000000000000000000000000000000000000081526004016117a890613758565b60405180910390fd5b6117bd60008383611e8d565b80600260008282546117cf9190612e6c565b92505081905550806000808473ffffffffffffffffffffffffffffffffffffffff1673ffffffffffffffffffffffffffffffffffffffff168152602001908152602001600020600082825401925050819055508173ffffffffffffffffffffffffffffffffffffffff16600073ffffffffffffffffffffffffffffffffffffffff167fddf252ad1be2c89b69c2b068fc378daa952ba7f163c4a11628f55a4df523b3ef836040516118809190612879565b60405180910390a361189460008383611ea5565b5050565b60007f000000000000000000000000000000000000000000000000000000000000000073ffffffffffffffffffffffffffffffffffffffff163073ffffffffffffffffffffffffffffffffffffffff1614801561191457507f000000000000000000000000000000000000000000000000000000000000000046145b15611941577f0000000000000000000000000000000000000000000000000000000000000000905061194c565b611949611f2f565b90505b90565b6119598282610be8565b15611a2d5760006006600084815260200190815260200160002060000160008373ffffffffffffffffffffffffffffffffffffffff1673ffffffffffffffffffffffffffffffffffffffff16815260200190815260200160002060006101000a81548160ff0219169083151502179055506119d261117a565b73ffffffffffffffffffffffffffffffffffffffff168173ffffffffffffffffffffffffffffffffffffffff16837ff6391f5c32d9c69d2a47ea670b442974b53935d1edc7fd64eb21e047a839171b60405160405180910390a45b5050565b611a39611fc5565b6000600560006101000a81548160ff0219169083151502179055507f5db9ee0a495bf2e6ff9c91a7834c1ba4fdd244a5e8aa4e537bd38aeae4b073aa611a7d61117a565b604051611a8a9190613778565b60405180910390a1565b600073ffffffffffffffffffffffffffffffffffffffff168273ffffffffffffffffffffffffffffffffffffffff1603611b03576040517f08c379a0000000000000000000000000000000000000000000000000000000008152600401611afa90613805565b60405180910390fd5b611b0f82600083611e8d565b60008060008473ffffffffffffffffffffffffffffffffffffffff1673ffffffffffffffffffffffffffffffffffffffff16815260200190815260200160002054905081811015611b95576040517f08c379a0000000000000000000000000000000000000000000000000000000008152600401611b8c90613897565b60405180910390fd5b8181036000808573ffffffffffffffffffffffffffffffffffffffff1673ffffffffffffffffffffffffffffffffffffffff1681526020019081526020016000208190555081600260008282540392505081905550600073ffffffffffffffffffffffffffffffffffffffff168373ffffffffffffffffffffffffffffffffffffffff167fddf252ad1be2c89b69c2b068fc378daa952ba7f163c4a11628f55a4df523b3ef84604051611c489190612879565b60405180910390a3611c5c83600084611ea5565b505050565b600081600001549050919050565b611c7761200e565b6001600560006101000a81548160ff0219169083151502179055507f62e78cea01bee320cd4e420270b5ea74000d11b0c9f74754ebdbfc544b05a258611cbb61117a565b604051611cc89190613778565b60405180910390a1565b606060ff60001b8314611cef57611ce883612058565b9050611d7c565b818054611cfb90612d0e565b80601f0160208091040260200160405190810160405280929190818152602001828054611d2790612d0e565b8015611d745780601f10611d4957610100808354040283529160200191611d74565b820191906000526020600020905b815481529060010190602001808311611d5757829003601f168201915b505050505090505b92915050565b600080600960008473ffffffffffffffffffffffffffffffffffffffff1673ffffffffffffffffffffffffffffffffffffffff1681526020019081526020016000209050611dcf81611c61565b9150611dda816120cc565b50919050565b6000611df3611ded611898565b836120e2565b9050919050565b6000806000611e0b87878787612123565b91509150611e1881612205565b8192505050949350505050565b600080829050601f81511115611e7257826040517f305a27a9000000000000000000000000000000000000000000000000000000008152600401611e699190612774565b60405180910390fd5b805181611e7e906138e7565b60001c1760001b915050919050565b611e9561200e565b611ea083838361110b565b505050565b505050565b611eb48282610be8565b611f2b57611ec18161236b565b611ecf8360001c6020612398565b604051602001611ee0929190613a22565b6040516020818303038152906040526040517f08c379a0000000000000000000000000000000000000000000000000000000008152600401611f229190612774565b60405180910390fd5b5050565b60007f8b73c3c69bb8fe3d512ecc4cf759cc79239f7b179b0ffacaa9a75d522b39400f7f00000000000000000000000000000000000000000000000000000000000000007f00000000000000000000000000000000000000000000000000000000000000004630604051602001611faa959493929190613a5c565b60405160208183030381529060405280519060200120905090565b611fcd6109e2565b61200c576040517f08c379a000000000000000000000000000000000000000000000000000000000815260040161200390613afb565b60405180910390fd5b565b6120166109e2565b15612056576040517f08c379a000000000000000000000000000000000000000000000000000000000815260040161204d90613b67565b60405180910390fd5b565b60606000612065836125d4565b90506000602067ffffffffffffffff81111561208457612083612ea0565b5b6040519080825280601f01601f1916602001820160405280156120b65781602001600182028036833780820191505090505b5090508181528360208201528092505050919050565b6001816000016000828254019250508190555050565b60006040517f190100000000000000000000000000000000000000000000000000000000000081528360028201528260228201526042812091505092915050565b6000807f7fffffffffffffffffffffffffffffff5d576e7357a4501ddfe92f46681b20a08360001c111561215e5760006003915091506121fc565b6000600187878787604051600081526020016040526040516121839493929190613b87565b6020604051602081039080840390855afa1580156121a5573d6000803e3d6000fd5b505050602060405103519050600073ffffffffffffffffffffffffffffffffffffffff168173ffffffffffffffffffffffffffffffffffffffff16036121f3576000600192509250506121fc565b80600092509250505b94509492505050565b6000600481111561221957612218613bcc565b5b81600481111561222c5761222b613bcc565b5b0315612368576001600481111561224657612245613bcc565b5b81600481111561225957612258613bcc565b5b03612299576040517f08c379a000000000000000000000000000000000000000000000000000000000815260040161229090613c47565b60405180910390fd5b600260048111156122ad576122ac613bcc565b5b8160048111156122c0576122bf613bcc565b5b03612300576040517f08c379a00000000000000000000000000000000000000000000000000000000081526004016122f790613cb3565b60405180910390fd5b6003600481111561231457612313613bcc565b5b81600481111561232757612326613bcc565b5b03612367576040517f08c379a000000000000000000000000000000000000000000000000000000000815260040161235e90613d45565b60405180910390fd5b5b50565b60606123918273ffffffffffffffffffffffffffffffffffffffff16601460ff16612398565b9050919050565b6060600060028360026123ab9190612fcd565b6123b59190612e6c565b67ffffffffffffffff8111156123ce576123cd612ea0565b5b6040519080825280601f01601f1916602001820160405280156124005781602001600182028036833780820191505090505b5090507f30000000000000000000000000000000000000000000000000000000000000008160008151811061243857612437613d65565b5b60200101907effffffffffffffffffffffffffffffffffffffffffffffffffffffffffffff1916908160001a9053507f78000000000000000000000000000000000000000000000000000000000000008160018151811061249c5761249b613d65565b5b60200101907effffffffffffffffffffffffffffffffffffffffffffffffffffffffffffff1916908160001a905350600060018460026124dc9190612fcd565b6124e69190612e6c565b90505b6001811115612586577f3031323334353637383961626364656600000000000000000000000000000000600f86166010811061252857612527613d65565b5b1a60f81b82828151811061253f5761253e613d65565b5b60200101907effffffffffffffffffffffffffffffffffffffffffffffffffffffffffffff1916908160001a905350600485901c94508061257f90613d94565b90506124e9565b50600084146125ca576040517f08c379a00000000000000000000000000000000000000000000000000000000081526004016125c190613e09565b60405180910390fd5b8091505092915050565b60008060ff8360001c169050601f81111561261b576040517fb3512b0c00000000000000000000000000000000000000000000000000000000815260040160405180910390fd5b80915050919050565b600080fd5b60007fffffffff0000000000000000000000000000000000000000000000000000000082169050919050565b61265e81612629565b811461266957600080fd5b50565b60008135905061267b81612655565b92915050565b60006020828403121561269757612696612624565b5b60006126a58482850161266c565b91505092915050565b60008115159050919050565b6126c3816126ae565b82525050565b60006020820190506126de60008301846126ba565b92915050565b600081519050919050565b600082825260208201905092915050565b60005b8381101561271e578082015181840152602081019050612703565b60008484015250505050565b6000601f19601f8301169050919050565b6000612746826126e4565b61275081856126ef565b9350612760818560208601612700565b6127698161272a565b840191505092915050565b6000602082019050818103600083015261278e818461273b565b905092915050565b600073ffffffffffffffffffffffffffffffffffffffff82169050919050565b60006127c182612796565b9050919050565b6127d1816127b6565b81146127dc57600080fd5b50565b6000813590506127ee816127c8565b92915050565b6000819050919050565b612807816127f4565b811461281257600080fd5b50565b600081359050612824816127fe565b92915050565b6000806040838503121561284157612840612624565b5b600061284f858286016127df565b925050602061286085828601612815565b9150509250929050565b612873816127f4565b82525050565b600060208201905061288e600083018461286a565b92915050565b6000806000606084860312156128ad576128ac612624565b5b60006128bb868287016127df565b93505060206128cc868287016127df565b92505060406128dd86828701612815565b9150509250925092565b6000819050919050565b6128fa816128e7565b811461290557600080fd5b50565b600081359050612917816128f1565b92915050565b60006020828403121561293357612932612624565b5b600061294184828501612908565b91505092915050565b612953816128e7565b82525050565b600060208201905061296e600083018461294a565b92915050565b6000806040838503121561298b5761298a612624565b5b600061299985828601612908565b92505060206129aa858286016127df565b9150509250929050565b6000602082840312156129ca576129c9612624565b5b60006129d884828501612815565b91505092915050565b600060ff82169050919050565b6129f7816129e1565b82525050565b6000602082019050612a1260008301846129ee565b92915050565b600060208284031215612a2e57612a2d612624565b5b6000612a3c848285016127df565b91505092915050565b60007fff0000000000000000000000000000000000000000000000000000000000000082169050919050565b612a7a81612a45565b82525050565b612a89816127b6565b82525050565b600081519050919050565b600082825260208201905092915050565b6000819050602082019050919050565b612ac4816127f4565b82525050565b6000612ad68383612abb565b60208301905092915050565b6000602082019050919050565b6000612afa82612a8f565b612b048185612a9a565b9350612b0f83612aab565b8060005b83811015612b40578151612b278882612aca565b9750612b3283612ae2565b925050600181019050612b13565b5085935050505092915050565b600060e082019050612b62600083018a612a71565b8181036020830152612b74818961273b565b90508181036040830152612b88818861273b565b9050612b97606083018761286a565b612ba46080830186612a80565b612bb160a083018561294a565b81810360c0830152612bc38184612aef565b905098975050505050505050565b612bda816129e1565b8114612be557600080fd5b50565b600081359050612bf781612bd1565b92915050565b600080600080600080600060e0888a031215612c1c57612c1b612624565b5b6000612c2a8a828b016127df565b9750506020612c3b8a828b016127df565b9650506040612c4c8a828b01612815565b9550506060612c5d8a828b01612815565b9450506080612c6e8a828b01612be8565b93505060a0612c7f8a828b01612908565b92505060c0612c908a828b01612908565b91505092959891949750929550565b60008060408385031215612cb657612cb5612624565b5b6000612cc4858286016127df565b9250506020612cd5858286016127df565b9150509250929050565b7f4e487b7100000000000000000000000000000000000000000000000000000000600052602260045260246000fd5b60006002820490506001821680612d2657607f821691505b602082108103612d3957612d38612cdf565b5b50919050565b7f416d6f756e74206d7573742062652067726561746572207468616e207a65726f600082015250565b6000612d756020836126ef565b9150612d8082612d3f565b602082019050919050565b60006020820190508181036000830152612da481612d68565b9050919050565b7f416363657373436f6e74726f6c3a2063616e206f6e6c792072656e6f756e636560008201527f20726f6c657320666f722073656c660000000000000000000000000000000000602082015250565b6000612e07602f836126ef565b9150612e1282612dab565b604082019050919050565b60006020820190508181036000830152612e3681612dfa565b9050919050565b7f4e487b7100000000000000000000000000000000000000000000000000000000600052601160045260246000fd5b6000612e77826127f4565b9150612e82836127f4565b9250828201905080821115612e9a57612e99612e3d565b5b92915050565b7f4e487b7100000000000000000000000000000000000000000000000000000000600052604160045260246000fd5b7f45524332303a2064656372656173656420616c6c6f77616e63652062656c6f7760008201527f207a65726f000000000000000000000000000000000000000000000000000000602082015250565b6000612f2b6025836126ef565b9150612f3682612ecf565b604082019050919050565b60006020820190508181036000830152612f5a81612f1e565b9050919050565b7f496e73756666696369656e742062616c616e6365000000000000000000000000600082015250565b6000612f976014836126ef565b9150612fa282612f61565b602082019050919050565b60006020820190508181036000830152612fc681612f8a565b9050919050565b6000612fd8826127f4565b9150612fe3836127f4565b9250828202612ff1816127f4565b9150828204841483151761300857613007612e3d565b5b5092915050565b7f45524332305065726d69743a206578706972656420646561646c696e65000000600082015250565b6000613045601d836126ef565b91506130508261300f565b602082019050919050565b6000602082019050818103600083015261307481613038565b9050919050565b600060c082019050613090600083018961294a565b61309d6020830188612a80565b6130aa6040830187612a80565b6130b7606083018661286a565b6130c4608083018561286a565b6130d160a083018461286a565b979650505050505050565b7f45524332305065726d69743a20696e76616c6964207369676e61747572650000600082015250565b6000613112601e836126ef565b915061311d826130dc565b602082019050919050565b6000602082019050818103600083015261314181613105565b9050919050565b60008190508160005260206000209050919050565b60006020601f8301049050919050565b600082821b905092915050565b6000600883026131aa7fffffffffffffffffffffffffffffffffffffffffffffffffffffffffffffffff8261316d565b6131b4868361316d565b95508019841693508086168417925050509392505050565b6000819050919050565b60006131f16131ec6131e7846127f4565b6131cc565b6127f4565b9050919050565b6000819050919050565b61320b836131d6565b61321f613217826131f8565b84845461317a565b825550505050565b600090565b613234613227565b61323f818484613202565b505050565b5b818110156132635761325860008261322c565b600181019050613245565b5050565b601f8211156132a85761327981613148565b6132828461315d565b81016020851015613291578190505b6132a561329d8561315d565b830182613244565b50505b505050565b600082821c905092915050565b60006132cb600019846008026132ad565b1980831691505092915050565b60006132e483836132ba565b9150826002028217905092915050565b6132fd826126e4565b67ffffffffffffffff81111561331657613315612ea0565b5b6133208254612d0e565b61332b828285613267565b600060209050601f83116001811461335e576000841561334c578287015190505b61335685826132d8565b8655506133be565b601f19841661336c86613148565b60005b828110156133945784890151825560018201915060208501945060208101905061336f565b868310156133b157848901516133ad601f8916826132ba565b8355505b6001600288020188555050505b505050505050565b7f45524332303a20617070726f76652066726f6d20746865207a65726f2061646460008201527f7265737300000000000000000000000000000000000000000000000000000000602082015250565b60006134226024836126ef565b915061342d826133c6565b604082019050919050565b6000602082019050818103600083015261345181613415565b9050919050565b7f45524332303a20617070726f766520746f20746865207a65726f20616464726560008201527f7373000000000000000000000000000000000000000000000000000000000000602082015250565b60006134b46022836126ef565b91506134bf82613458565b604082019050919050565b600060208201905081810360008301526134e3816134a7565b9050919050565b7f45524332303a20696e73756666696369656e7420616c6c6f77616e6365000000600082015250565b6000613520601d836126ef565b915061352b826134ea565b602082019050919050565b6000602082019050818103600083015261354f81613513565b9050919050565b7f45524332303a207472616e736665722066726f6d20746865207a65726f20616460008201527f6472657373000000000000000000000000000000000000000000000000000000602082015250565b60006135b26025836126ef565b91506135bd82613556565b604082019050919050565b600060208201905081810360008301526135e1816135a5565b9050919050565b7f45524332303a207472616e7366657220746f20746865207a65726f206164647260008201527f6573730000000000000000000000000000000000000000000000000000000000602082015250565b60006136446023836126ef565b915061364f826135e8565b604082019050919050565b6000602082019050818103600083015261367381613637565b9050919050565b7f45524332303a207472616e7366657220616d6f756e742065786365656473206260008201527f616c616e63650000000000000000000000000000000000000000000000000000602082015250565b60006136d66026836126ef565b91506136e18261367a565b604082019050919050565b60006020820190508181036000830152613705816136c9565b9050919050565b7f45524332303a206d696e7420746f20746865207a65726f206164647265737300600082015250565b6000613742601f836126ef565b915061374d8261370c565b602082019050919050565b6000602082019050818103600083015261377181613735565b9050919050565b600060208201905061378d6000830184612a80565b92915050565b7f45524332303a206275726e2066726f6d20746865207a65726f2061646472657360008201527f7300000000000000000000000000000000000000000000000000000000000000602082015250565b60006137ef6021836126ef565b91506137fa82613793565b604082019050919050565b6000602082019050818103600083015261381e816137e2565b9050919050565b7f45524332303a206275726e20616d6f756e7420657863656564732062616c616e60008201527f6365000000000000000000000000000000000000000000000000000000000000602082015250565b60006138816022836126ef565b915061388c82613825565b604082019050919050565b600060208201905081810360008301526138b081613874565b9050919050565b600081519050919050565b6000819050602082019050919050565b60006138de82516128e7565b80915050919050565b60006138f2826138b7565b826138fc846138c2565b9050613907816138d2565b92506020821015613947576139427fffffffffffffffffffffffffffffffffffffffffffffffffffffffffffffffff8360200360080261316d565b831692505b5050919050565b600081905092915050565b7f416363657373436f6e74726f6c3a206163636f756e7420000000000000000000600082015250565b600061398f60178361394e565b915061399a82613959565b601782019050919050565b60006139b0826126e4565b6139ba818561394e565b93506139ca818560208601612700565b80840191505092915050565b7f206973206d697373696e6720726f6c6520000000000000000000000000000000600082015250565b6000613a0c60118361394e565b9150613a17826139d6565b601182019050919050565b6000613a2d82613982565b9150613a3982856139a5565b9150613a44826139ff565b9150613a5082846139a5565b91508190509392505050565b600060a082019050613a71600083018861294a565b613a7e602083018761294a565b613a8b604083018661294a565b613a98606083018561286a565b613aa56080830184612a80565b9695505050505050565b7f5061757361626c653a206e6f7420706175736564000000000000000000000000600082015250565b6000613ae56014836126ef565b9150613af082613aaf565b602082019050919050565b60006020820190508181036000830152613b1481613ad8565b9050919050565b7f5061757361626c653a2070617573656400000000000000000000000000000000600082015250565b6000613b516010836126ef565b9150613b5c82613b1b565b602082019050919050565b60006020820190508181036000830152613b8081613b44565b9050919050565b6000608082019050613b9c600083018761294a565b613ba960208301866129ee565b613bb6604083018561294a565b613bc3606083018461294a565b95945050505050565b7f4e487b7100000000000000000000000000000000000000000000000000000000600052602160045260246000fd5b7f45434453413a20696e76616c6964207369676e61747572650000000000000000600082015250565b6000613c316018836126ef565b9150613c3c82613bfb565b602082019050919050565b60006020820190508181036000830152613c6081613c24565b9050919050565b7f45434453413a20696e76616c6964207369676e6174757265206c656e67746800600082015250565b6000613c9d601f836126ef565b9150613ca882613c67565b602082019050919050565b60006020820190508181036000830152613ccc81613c90565b9050919050565b7f45434453413a20696e76616c6964207369676e6174757265202773272076616c60008201527f7565000000000000000000000000000000000000000000000000000000000000602082015250565b6000613d2f6022836126ef565b9150613d3a82613cd3565b604082019050919050565b60006020820190508181036000830152613d5e81613d22565b9050919050565b7f4e487b7100000000000000000000000000000000000000000000000000000000600052603260045260246000fd5b6000613d9f826127f4565b915060008203613db257613db1612e3d565b5b600182039050919050565b7f537472696e67733a20686578206c656e67746820696e73756666696369656e74600082015250565b6000613df36020836126ef565b9150613dfe82613dbd565b602082019050919050565b60006020820190508181036000830152613e2281613de6565b905091905056fea26469706673582212200ea44f16849af8ae4665aac28adb2cd801796e37939d2e17be770b7dda9db8ad64736f6c63430008120033",
  "immutableReferences": {
    "2497": [
      {
        "length": 32,
        "start": 6427
      }
    ],
    "2499": [
      {
        "length": 32,
        "start": 6386
      }
    ],
    "2501": [
      {
        "length": 32,
        "start": 6300
      }
    ],
    "2503": [
      {
        "length": 32,
        "start": 8020
      }
    ],
    "2505": [
      {
        "length": 32,
        "start": 8053
      }
    ],
    "2508": [
      {
        "length": 32,
        "start": 2809
      }
    ],
    "2511": [
      {
        "length": 32,
        "start": 2861
      }
    ]
  },
  "source": "// SPDX-License-Identifier: MIT\r\npragma solidity ^0.8.9;\r\n\r\nimport \"@openzeppelin/contracts/token/ERC20/ERC20.sol\";\r\nimport \"@openzeppelin/contracts/token/ERC20/extensions/ERC20Burnable.sol\";\r\nimport \"@openzeppelin/contracts/security/Pausable.sol\";\r\nimport \"@openzeppelin/contracts/access/AccessControl.sol\";\r\nimport \"@openzeppelin/contracts/token/ERC20/extensions/ERC20Permit.sol\";\r\n\r\ncontract LoyalCoin is ERC20, ERC20Burnable, Pausable, AccessControl, ERC20Permit {\r\n    bytes32 public constant PAUSER_ROLE = keccak256(\"PAUSER_ROLE\");\r\n    bytes32 public constant MINTER_ROLE = keccak256(\"MINTER_ROLE\");\r\n\r\n    // Define events\r\n    event TokensEarned(address indexed account, uint256 amount);\r\n    event TokensRedeemed(address indexed account, uint256 amount);\r\n\r\n    constructor() ERC20(\"LoyalCoin\", \"LCS\") ERC20Permit(\"LoyalCoin\") {\r\n        _grantRole(DEFAULT_ADMIN_ROLE, msg.sender);\r\n        _grantRole(PAUSER_ROLE, msg.sender);\r\n        _mint(msg.sender, 420420420420 * 10 ** decimals());\r\n        _grantRole(MINTER_ROLE, msg.sender);\r\n    }\r\n\r\n    function pause() public onlyRole(PAUSER_ROLE) {\r\n        _pause();\r\n    }\r\n\r\n    function unpause() public onlyRole(PAUSER_ROLE) {\r\n        _unpause();\r\n    }\r\n\r\n    function mint(address to, uint256 amount) public onlyRole(MINTER_ROLE) {\r\n        _mint(to, amount);\r\n    }\r\n\r\n    function _beforeTokenTransfer(address from, address to, uint256 amount)\r\n        internal\r\n        whenNotPaused\r\n        override\r\n    {\r\n        super._beforeTokenTransfer(from, to, amount);\r\n    }\r\n\r\n    function earnTokens(uint256 amount) public {\r\n        require(amount > 0, \"Amount must be greater than zero\");\r\n        _mint(msg.sender, amount);\r\n        emit TokensEarned(msg.sender, amount);\r\n    }\r\n\r\n    function redeemTokens(uint256 amount) public {\r\n        require(amount > 0, \"Amount must be greater than zero\");\r\n        require(balanceOf(msg.sender) >= amount, \"Insufficient balance\");\r\n\r\n        // Calculate the amount of rewards based on the redeemed tokens\r\n        uint256 rewards = amount * 2; // Example: Each token gives 2 rewards\r\n\r\n        // Transfer the rewards to the user\r\n        _mint(msg.sender, rewards);\r\n\r\n        // Burn the redeemed tokens\r\n        _burn(msg.sender, amount);\r\n\r\n        emit TokensRedeemed(msg.sender, amount);\r\n    }\r\n}\r\n",
  "sourcePath": "D:\\FSD\\FlipKart Grid\\contracts\\LoyalCoin.sol",
  "compiler": {
    "name": "solc",
    "version": "0.8.18+commit.87f61d96.Emscripten.clang"
  },
  "schemaVersion": "3.4.15",
  "updatedAt": "2023-08-10T04:16:03.159Z",
  "networkType": "ethereum",
  "devdoc": {
    "events": {
      "Approval(address,address,uint256)": {
        "details": "Emitted when the allowance of a `spender` for an `owner` is set by a call to {approve}. `value` is the new allowance."
      },
      "EIP712DomainChanged()": {
        "details": "MAY be emitted to signal that the domain could have changed."
      },
      "Paused(address)": {
        "details": "Emitted when the pause is triggered by `account`."
      },
      "RoleAdminChanged(bytes32,bytes32,bytes32)": {
        "details": "Emitted when `newAdminRole` is set as ``role``'s admin role, replacing `previousAdminRole` `DEFAULT_ADMIN_ROLE` is the starting admin for all roles, despite {RoleAdminChanged} not being emitted signaling this. _Available since v3.1._"
      },
      "RoleGranted(bytes32,address,address)": {
        "details": "Emitted when `account` is granted `role`. `sender` is the account that originated the contract call, an admin role bearer except when using {AccessControl-_setupRole}."
      },
      "RoleRevoked(bytes32,address,address)": {
        "details": "Emitted when `account` is revoked `role`. `sender` is the account that originated the contract call:   - if using `revokeRole`, it is the admin role bearer   - if using `renounceRole`, it is the role bearer (i.e. `account`)"
      },
      "Transfer(address,address,uint256)": {
        "details": "Emitted when `value` tokens are moved from one account (`from`) to another (`to`). Note that `value` may be zero."
      },
      "Unpaused(address)": {
        "details": "Emitted when the pause is lifted by `account`."
      }
    },
    "kind": "dev",
    "methods": {
      "DOMAIN_SEPARATOR()": {
        "details": "See {IERC20Permit-DOMAIN_SEPARATOR}."
      },
      "allowance(address,address)": {
        "details": "See {IERC20-allowance}."
      },
      "approve(address,uint256)": {
        "details": "See {IERC20-approve}. NOTE: If `amount` is the maximum `uint256`, the allowance is not updated on `transferFrom`. This is semantically equivalent to an infinite approval. Requirements: - `spender` cannot be the zero address."
      },
      "balanceOf(address)": {
        "details": "See {IERC20-balanceOf}."
      },
      "burn(uint256)": {
        "details": "Destroys `amount` tokens from the caller. See {ERC20-_burn}."
      },
      "burnFrom(address,uint256)": {
        "details": "Destroys `amount` tokens from `account`, deducting from the caller's allowance. See {ERC20-_burn} and {ERC20-allowance}. Requirements: - the caller must have allowance for ``accounts``'s tokens of at least `amount`."
      },
      "decimals()": {
        "details": "Returns the number of decimals used to get its user representation. For example, if `decimals` equals `2`, a balance of `505` tokens should be displayed to a user as `5.05` (`505 / 10 ** 2`). Tokens usually opt for a value of 18, imitating the relationship between Ether and Wei. This is the default value returned by this function, unless it's overridden. NOTE: This information is only used for _display_ purposes: it in no way affects any of the arithmetic of the contract, including {IERC20-balanceOf} and {IERC20-transfer}."
      },
      "decreaseAllowance(address,uint256)": {
        "details": "Atomically decreases the allowance granted to `spender` by the caller. This is an alternative to {approve} that can be used as a mitigation for problems described in {IERC20-approve}. Emits an {Approval} event indicating the updated allowance. Requirements: - `spender` cannot be the zero address. - `spender` must have allowance for the caller of at least `subtractedValue`."
      },
      "eip712Domain()": {
        "details": "See {EIP-5267}. _Available since v4.9._"
      },
      "getRoleAdmin(bytes32)": {
        "details": "Returns the admin role that controls `role`. See {grantRole} and {revokeRole}. To change a role's admin, use {_setRoleAdmin}."
      },
      "grantRole(bytes32,address)": {
        "details": "Grants `role` to `account`. If `account` had not been already granted `role`, emits a {RoleGranted} event. Requirements: - the caller must have ``role``'s admin role. May emit a {RoleGranted} event."
      },
      "hasRole(bytes32,address)": {
        "details": "Returns `true` if `account` has been granted `role`."
      },
      "increaseAllowance(address,uint256)": {
        "details": "Atomically increases the allowance granted to `spender` by the caller. This is an alternative to {approve} that can be used as a mitigation for problems described in {IERC20-approve}. Emits an {Approval} event indicating the updated allowance. Requirements: - `spender` cannot be the zero address."
      },
      "name()": {
        "details": "Returns the name of the token."
      },
      "nonces(address)": {
        "details": "See {IERC20Permit-nonces}."
      },
      "paused()": {
        "details": "Returns true if the contract is paused, and false otherwise."
      },
      "permit(address,address,uint256,uint256,uint8,bytes32,bytes32)": {
        "details": "See {IERC20Permit-permit}."
      },
      "renounceRole(bytes32,address)": {
        "details": "Revokes `role` from the calling account. Roles are often managed via {grantRole} and {revokeRole}: this function's purpose is to provide a mechanism for accounts to lose their privileges if they are compromised (such as when a trusted device is misplaced). If the calling account had been revoked `role`, emits a {RoleRevoked} event. Requirements: - the caller must be `account`. May emit a {RoleRevoked} event."
      },
      "revokeRole(bytes32,address)": {
        "details": "Revokes `role` from `account`. If `account` had been granted `role`, emits a {RoleRevoked} event. Requirements: - the caller must have ``role``'s admin role. May emit a {RoleRevoked} event."
      },
      "supportsInterface(bytes4)": {
        "details": "See {IERC165-supportsInterface}."
      },
      "symbol()": {
        "details": "Returns the symbol of the token, usually a shorter version of the name."
      },
      "totalSupply()": {
        "details": "See {IERC20-totalSupply}."
      },
      "transfer(address,uint256)": {
        "details": "See {IERC20-transfer}. Requirements: - `to` cannot be the zero address. - the caller must have a balance of at least `amount`."
      },
      "transferFrom(address,address,uint256)": {
        "details": "See {IERC20-transferFrom}. Emits an {Approval} event indicating the updated allowance. This is not required by the EIP. See the note at the beginning of {ERC20}. NOTE: Does not update the allowance if the current allowance is the maximum `uint256`. Requirements: - `from` and `to` cannot be the zero address. - `from` must have a balance of at least `amount`. - the caller must have allowance for ``from``'s tokens of at least `amount`."
      }
    },
    "version": 1
  },
  "userdoc": {
    "kind": "user",
    "methods": {},
    "version": 1
  }
}